:100000000C9472000C9493000C9493000C94930045
:100010000C9493000C9493000C9493000C94930014
:100020000C9493000C9493000C9493000C94930004
:100030000C9493000C9493000C9493000C949300F4
:100040000C9493000C9493000C9493000C949300E4
:100050000C9493000C9493000C9493000C949300D4
:100060000C9493000C9493000C9493000C949300C4
:100070000C9493000C9493000C9493000C949300B4
:100080000C9493000C9493000C9493000C949300A4
:100090000C9493000C9493000C9493000C94930094
:1000A0000C9493000C9493000C9493000C94930084
:1000B0000C9493000C9493000C9493000C94930074
:1000C0000C9493000C9493000C9493000C94930064
:1000D0000C9493000C9493000C9493000C94930054
:1000E0000C94930011241FBECFEFD1E2DEBFCDBF31
:1000F00000E00CBF12E0A0E0B2E0E6E4F2E000E0D5
:100100000BBF02C007900D92A430B107D9F722E0CF
:10011000A4E0B2E001C01D92A630B207E1F70E9450
:10012000E5000C9421010C9400001092C50088E0B9
:100130008093C4001092C00098E19093C10096E0B3
:100140009093C2001092D5008093D4001092D000FA
:100150008093D1009093D20008958093C60080913F
:10016000C00086FFFCCF08958091C00087FFFCCFC0
:100170008091C600809305028093D6008091D000C4
:1001800086FFFCCF809105028093000241E050E0A1
:1001900060E072E084E092E00E941101E5CF8DE022
:1001A0008093C6008091C00086FFFCCF87ED92E06F
:1001B0000197F1F700C000008AE08093C6008091AB
:1001C000C00086FFFCCF08950895CF93DF9300D041
:1001D000CDB7DEB782E08DB91AB80E949500809144
:1001E000010290910202A091030289839A83AB835A
:1001F000CE0101967C01FC0101900020E9F73197C6
:100200001E2F181B6C018C2D8E19811730F4F601EE
:1002100081916F010E94AD00F6CF0E94CF000E9435
:10022000B400FB01DC010D900020E9F7119741506B
:10023000504028F0019000200D92C9F708951C92BB
:060240000895F894FFCFC1
:0402460020415400FF
:00000001FF
