:100000000C9472000C9486000C9486000C9486006C
:100010000C9486000C9486000C9486000C94860048
:100020000C9486000C9486000C9486000C94860038
:100030000C9486000C9486000C9486000C94860028
:100040000C9486000C9486000C9486000C94860018
:100050000C9486000C9486000C9486000C94860008
:100060000C9486000C9486000C9486000C948600F8
:100070000C9486000C9486000C9486000C948600E8
:100080000C9486000C9486000C9486000C948600D8
:100090000C9486000C94F8010C9486000C94860055
:1000A0000C9486000C9486000C9486000C948600B8
:1000B0000C9486000C9486000C9486000C948600A8
:1000C0000C9486000C9486000C9486000C94860098
:1000D0000C9486000C9486000C9486000C94860088
:1000E0000C94860011241FBECFEFD1E2DEBFCDBF3E
:1000F00000E00CBF22E0A0E0B2E001C01D92A430FD
:10010000B207E1F70E941D020C944D030C9400000D
:10011000EAE7F0E087E8808381E480937C008081D7
:1001200080648083089588E090E09093CD00809370
:10013000CC00E9ECF0E08081886680831092C800F2
:1001400086E08093CA0008952F923F924F925F926B
:100150006F927F928F929F92AF92BF92CF92DF92D7
:10016000EF92FF920F931F93CF93DF93CDB7DEB73C
:1001700060970FB6F894DEBF0FBECDBF4A8780915F
:1001800079002091780090E0982F8827AC01420FE9
:10019000511D5987488780917A00806480937A0046
:1001A0005D834C831F821E8200E010E0188A1F8648
:1001B000E0E0F0E0412C512C612C712CE12CF12C71
:1001C00022242A9483E0382EC12CD12C812C912C0E
:1001D000A12CB12C1B821A8240E019829A85892FAA
:1001E00090E09C878B87A62F660FBB0BBE87AD87E1
:1001F00029812A3008F0A0C04F5F209179008091BA
:10020000780030E0322F2227280F311D80917A00AC
:10021000806480937A00C9016FEF73E00E9432021C
:10022000AB85BC856A9FC0016B9F900D7A9F900D36
:1002300011246D857E85861B970B889FB001899F51
:10024000700D700D11248A819B81860F971F9B83EF
:100250008A8381E090E0A885B985A217B30714F0DE
:1002600080E090E0413041F06E817F81681779072E
:1002700019F079817F5F7983AC81BD81A217B307C3
:1002800074F5EF20E09429F46F8578896530710565
:10029000B4F017FF16C0AF85B889169794F0A20C7A
:1002A000B31CBFEF4B1A5B0A00E010E0188A1F86F0
:1002B000E0E0F0E022242A9473E0372E02C00FEF32
:1002C0001FEF6F8578896F5F7F4F788B6F87C216BE
:1002D000D3060CF46901EE24E394F12C28C0AC8120
:1002E000BD812A173B071CF51E141F041CF4E530C2
:1002F000F105A4F01016110694F4E630F1057CF037
:100300008C0C9D1CBFEF6B1A7B0A00E010E0188A72
:100310001F86E0E0F0E0C12CD12C01C087013196AE
:10032000221533050CF41901EE24EA94FE2C9F8368
:100330008E833D832C835CCF642F70E08A819B8108
:100340000E943202072E000C880B990B0E948B0230
:100350000E94F5020E945A0270930102609300020B
:1003600041145104F1F061147104D9F0C401B301D6
:100370000E9432029B01C501B2010E943202C901F2
:10038000861B970B6FEF73E00E9432024A85469FEF
:10039000C001479F900D11249093030280930202A5
:1003A00004C0109203021092020280910202909106
:1003B000030297FF04C0109203021092020260969B
:1003C0000FB6F894DEBF0FBECDBFDF91CF911F9166
:1003D0000F91FF90EF90DF90CF90BF90AF909F90E4
:1003E0008F907F906F905F904F903F902F900895E7
:1003F0001F920F920FB60F9211240BB60F928F938C
:10040000AF93BF93EF93FF9380910202EEECF0E085
:100410008083A9ECB0E08C9180628C938091000283
:100420008083FF91EF91BF91AF918F910F900BBEA1
:100430000F900FBE0F901F9018950E9488000E9489
:10044000930045E062E081E090E00E94A40080918A
:100450000202EEECF0E0808380910002808380E075
:1004600090E0089597FB072E16F4009407D077FDCF
:1004700009D00E94460207FC05D03EF49095819574
:100480009F4F0895709561957F4F0895AA1BBB1BE0
:1004900051E107C0AA1FBB1FA617B70710F0A61B84
:1004A000B70B881F991F5A95A9F780959095BC01A5
:1004B000CD0108950E94CE0288F09F5798F0B92F81
:1004C0009927B751B0F0E1F0660F771F881F991F89
:1004D0001AF0BA95C9F714C0B13091F00E94E80241
:1004E000B1E008950C94E802672F782F8827B85F51
:1004F00039F0B93FCCF3869577956795B395D9F7E1
:100500003EF490958095709561957F4F8F4F9F4FEA
:100510000895E89409C097FB3EF4909580957095F6
:1005200061957F4F8F4F9F4F9923A9F0F92F96E93F
:10053000BB279395F695879577956795B795F111B4
:10054000F8CFFAF4BB0F11F460FF1BC06F5F7F4F51
:100550008F4F9F4F16C0882311F096E911C0772363
:1005600021F09EE8872F762F05C0662371F096E86C
:10057000862F70E060E02AF09A95660F771F881F3B
:10058000DAF7880F9695879597F9089557FD905853
:10059000440F551F59F05F3F71F04795880F97FB47
:1005A000991F61F09F3F79F0879508951216130601
:1005B0001406551FF2CF4695F1DF08C01616170630
:1005C0001806991FF1CF8695710561050894089565
:1005D000E894BB2766277727CB0197F9089519F48C
:1005E00016F40C9443030C9435030E94CE02B8F326
:1005F0009923C9F3B6F39F57550B87FF0E94460313
:100600000024A0E640EA900180585695979528F47A
:10061000805C660F771F881F20F026173707480772
:1006200030F4621B730B840B202931294A2BA695C9
:1006300017940794202531254A2758F7660F771F0E
:10064000881F20F026173707480730F4620B730B1A
:10065000840B200D311D411DA09581F7B901842F18
:100660009158880F9695879508959F3F31F0915046
:1006700020F4879577956795B795880F911D969586
:10068000879597F908959FEF80EC08959150504019
:0E069000660F771F881FD2F70895F894FFCFEA
:00000001FF
