:020000040000FA
:100000000C947C000C949D000C949D000C949D001D
:100010000C949D000C949D000C949D000C949D00EC
:100020000C949D000C949D000C949D000C949D00DC
:100030000C949D000C949D000C949D000C949D00CC
:100040000C949D000C949D000C949D000C949D00BC
:100050000C949D000C949D000C949D000C949D00AC
:100060000C949D000C942F020C944A020C949D0059
:100070000C949D000C949D000C949D000C949D008C
:100080000C949D000C949D000C949D000C949D007C
:100090000C94F6010C9411020C949D000C949D009C
:1000A0000C949D000C949D000C949D000C949D005C
:1000B0000C949D000C949D000C949D000C949D004C
:1000C0000C949D000C949D000C949D000C94BD011B
:1000D0000C94D8010C949D000C9484010C949F0105
:1000E0000C949D000C942B010C94F7006364696ED2
:1000F0006F70737578585B0011241FBECFEFD1E28B
:10010000DEBFCDBF00E00CBF23E0A6E1B2E001C03E
:100110001D92AD32B207E1F712E0A0E0B2E0E2E3F7
:10012000F1E100E00BBF02C007900D92A631B107CC
:10013000D9F70E9468020C9497080C9400009091E3
:100140001E0293959F71B0911A02B917E1F3A92F7E
:10015000B0E0A95DBD4F8C93F89490931E029091EE
:100160003101906290933101189590911D02939501
:100170009F71B0911902B917E1F3A92FB0E0A95509
:10018000BD4F8C93F89490931D029091D100906292
:100190009093D100189590911C0293959F71B09106
:1001A0001802B917E1F3A92FB0E0A959BD4F8C93FC
:1001B000F89490931C029091C90090629093C900AA
:1001C000189590911B0293959F71B0911702B917E2
:1001D000E1F3A92FB0E0A95FBC4F8C93F894909302
:1001E0001B029091C10090629093C1001895CF932B
:1001F000C82FFB018485958582309105D1F083302D
:10020000910501F1019761F0CA3019F48DE00E9467
:10021000E1008C2F0E94E10090E080E0CF910895F2
:10022000CA3019F48DE00E94CB008C2F0E94CB00C5
:10023000F3CFCA3019F48DE00E94B5008C2F0E94D4
:10024000B500EACFCA3019F48DE00E949F008C2FD0
:100250000E949F00E1CFFC01848595858230910545
:1002600009F42EC08330910509F43CC00197B1F028
:100270009091200280911F029817D1F39F5F9F7188
:10028000A92FB0E0A95BBD4F8C91909320020E94F2
:10029000E100082E000C990B9927089590912202F5
:1002A000809121029817D1F39F5F9F71A92FB0E031
:1002B000A957BD4F8C91909322020E94CB00E9CFA9
:1002C00090912402809123029817D1F39F5F9F7130
:1002D000A92FB0E0A951BD4F8C91909324020E94A8
:1002E000B500D7CF90912602809125029817D1F3BF
:1002F0009F5F9F71A92FB0E0A953BD4F8C91909340
:1003000026020E949F00C5CF0F930FB79F93909135
:100310003601EF93FF93E0912502F0912602E395D9
:10032000EF71FE1731F0E0932502F0E0E953FD4F45
:100330009083FF91EF919F910FBF0F9118950F93AD
:100340000FB7EF93FF93E0911A02F0911E02E3952D
:10035000EF71EF1305C0F0913101FF7DF093310192
:10036000E0931A02F0E0E95DFD4FE081E093360191
:10037000FF91EF910FBF0F9118950F930FB79F93B8
:100380009091D600EF93FF93E0912302F091240225
:10039000E395EF71FE1731F0E0932302F0E0E951AD
:1003A000FD4F9083FF91EF919F910FBF0F91189593
:1003B0000F930FB7EF93FF93E0911902F0911D0295
:1003C000E395EF71EF1305C0F091D100FF7DF0933D
:1003D000D100E0931902F0E0E955FD4FE081E09390
:1003E000D600FF91EF910FBF0F9118950F930FB7A4
:1003F0009F939091CE00EF93FF93E0912102F091B3
:100400002202E395EF71FE1731F0E0932102F0E054
:10041000E957FD4F9083FF91EF919F910FBF0F918F
:1004200018950F930FB7EF93FF93E0911802F09197
:100430001C02E395EF71EF1305C0F091C900FF7D39
:10044000F093C900E0931802F0E0E959FD4FE08114
:10045000E093CE00FF91EF910FBF0F9118950F938E
:100460000FB79F939091C600EF93FF93E0911F0207
:10047000F0912002E395EF71FE1731F0E0931F0237
:10048000F0E0E95BFD4F9083FF91EF919F910FBFEB
:100490000F9118950F930FB7EF93FF93E091170209
:1004A000F0911B02E395EF71EF1305C0F091C100CD
:1004B000FF7DF093C100E0931702F0E0E95FFC4F8D
:1004C000E081E093C600FF91EF910FBF0F91189567
:1004D00098E09093C4001092C50088E98093C10011
:1004E0009093CC001092CD008093C90080E092E000
:1004F00090932A03809329039093280380932703E2
:100500007894EEE0F2E08191882311F044DEFBCF95
:10051000C3E1D2E01F921F92DF93CF930E94BB02F0
:100520001F921F920E94A7020F900F900F900F90A2
:100530000F900F90EFCF91110C94A402803219F01C
:1005400089508550C8F70895992788270895CF9333
:10055000DF93CDB7DEB7AE014A5F5F4FFA0161911D
:100560007191AF018091290390912A030E94CF02DB
:10057000DF91CF910895CF93DF93CDB7DEB7AE0172
:100580004A5F5F4FFA0161917191AF01809127033A
:10059000909128030E947B06DF91CF9108952F92BE
:1005A0003F924F925F926F927F928F929F92AF9203
:1005B000BF92CF92DF92EF92FF920F931F93CF9350
:1005C000DF9300D000D000D01F921F92CDB7DEB7CE
:1005D0007C013B018A01FC0117821682838181FF25
:1005E000DDC1CE0101965C01F7019381F30193FD1A
:1005F000859193FF81913F01882309F453C185328E
:1006000039F493FD859193FF81913F01853229F45F
:10061000B70190E00E94F107E7CF912C212C312CFB
:10062000FFE1F31538F08B3211F190F4803209F1CB
:10063000833229F137FC3CC020ED280F2A3050F5D9
:1006400036FE20C08AE0989E200D1124922E06C00E
:100650008D3291F0803371F7689430F8F30193FD97
:10066000859193FF81913F018111DACF21C0689478
:1006700031F8689432F8F2CF689433F8EFCF689489
:1006800034F8ECCFEAE02E9E200D1124222E68943F
:1006900035F8E4CF8E3229F436FC04C1689436F87C
:1006A000DDCF8C3619F4689437F8D8CF8836B1F29C
:1006B000982F9F7D95549330E0F08336A1F18337D6
:1006C000C1F1833509F063C02801F2E04F0E511CDF
:1006D000F801C080D180692D70E036FC02C06FEF58
:1006E0007FEFC6010E949F074C01689437F8820192
:1006F0000AC00C5F1F4FFFE3F98388248394912C79
:100700006501E89437F833FE2DC0522C8114910412
:1007100071F5552009F468CFB70180E290E00E949E
:10072000F1075A94F6CFF801808189830E5F1F4F3D
:10073000E4CF2801F2E04F0E511CF801C080D180B7
:10074000692D70E036FC02C06FEF7FEFC6010E949A
:10075000AA074C018201D5CFB70180E290E00E9448
:10076000F1072A942814190409F0B0F7CECFF60146
:1007700037FC859137FE81916F01B70190E00E94AF
:10078000F10751105A94F1E08F1A9108BFCF8436C7
:1007900019F0893609F077C0F80137FE6BC0608127
:1007A0007181828193810C5F1F4FF32DFF763F2E65
:1007B00097FF09C090958095709561957F4F8F4FF9
:1007C0009F4F689437F82AE030E0A5010E9439086D
:1007D000C82ECA188C2C432C36FE0CC0E89440F866
:1007E000C91440F434FE05C032FC03C0F32DFE7E74
:1007F0004F2E892C44FEAAC0FE01EC0DF11D808114
:10080000803309F09CC0242D297E422E842D8870CF
:10081000582E43FCAAC040FEA4C09C2C821418F49D
:100820002C0C922C981844FEA6C0B70180E390E0EF
:100830000E94F10742FE09C088E790E041FE02C035
:1008400088E590E0B7010E94F107C91408F49FC041
:10085000CA94D12C9FEFC91AD90ACA0CDB1CF60125
:1008600082916F01B70190E00E94F107AC14BD04C2
:10087000B1F74FCF60817181072E000C880B990B67
:100880000E5F1F4F92CFD32CE894D4F82AE030E0CB
:100890008537E1F1232D297FD22E8F36A9F1F0F48F
:1008A000883551F1F701868197812B960FB6F89420
:1008B000DEBF0FBECDBFDF91CF911F910F91FF9093
:1008C000EF90DF90CF90BF90AF909F908F907F90F0
:1008D0006F905F904F903F902F900895803749F030
:1008E000883701F7D4FE02C06894D2F820E130E0E6
:1008F0000DC06894D4F8F6CF34FE03C0822F866012
:10090000D82E20E132E002C028E030E0F801D7FE26
:100910000FC060817181828193810C5F1F4FA5019F
:100920000E943908C82ECA183D2CE89437F852CFD7
:100930006081718190E080E00E5F1F4FF0CF42FC3C
:1009400002C0839463CF8394839460CF842D867890
:1009500009F45CCFF6CFB70180E290E00E94F10786
:1009600083948214C0F3512C5ECF522C58188214F9
:1009700008F459CFF8CF842D867809F466CF8BE23E
:1009800041FE80E247FC8DE2B70190E05CCFB70109
:1009900080E390E00E94F1079A9457CF8FEF9FEF8A
:1009A00084CF20FD09C0FC0123FD05C022FF02C049
:1009B0007383628351834083089544FD17C046FDCD
:1009C0001DC0DB01FC01AA0FBB1FEE1FFF1F10940F
:1009D000D1F76A0F7B1F8E1F9F1F660F771F881F1F
:1009E000991F620F711D811D911D089533E0660FDF
:1009F000771F881F991F3150D1F7F3CF34E0F7CF1D
:100A00000F931F93CF93DF938C01C8010E94B5070A
:100A1000EC0197FD08C00E949B02892BB1F7B80139
:100A2000CE010E942108CE01DF91CF911F910F913D
:100A300008958F929F92AF92BF92EF92FF920F9381
:100A40001F93CF93DF938C01D62F7A01B22E0E9491
:100A5000B5079C0133272B32310529F02D323105A2
:100A6000A9F46894B7F8D15061F480E0DF91CF9198
:100A70001F910F91FF90EF90BF90AF909F908F903C
:100A80000895C8010E94B50797FDEFCFCB2DCD7F0C
:100A90002B2D2073F9F48033E9F4AA24AA94AD0E27
:100AA00089F0C8010E94B50797FD0CC0282F2F7D43
:100AB000283561F4C264D25029F0C8010E94B507FC
:100AC00097FF08C0812C912C54011BC0B6FE2BC08F
:100AD000C260DA2D812C912C540120ED280F283092
:100AE00028F1C4FD09C02A3008F1C6FF05C02F7DDA
:100AF0003FEE320F3630C8F0B8010E942108C1FF26
:100B0000B4CFC7FF08C0B094A09490948094811C87
:100B1000911CA11CB11C2C2FB501A401C7010E947E
:100B2000D10481E0A3CFC261D4CF27504C2FC5019F
:100B3000B4010E94DD044B015C01C260D15009F395
:100B4000C8010E94B50797FFC8CFD9CF7F928F9277
:100B50009F92AF92BF92CF92DF92EF92FF920F934C
:100B60001F93CF93DF93CDB7DEB7A0970FB6F8945E
:100B7000DEBF0FBECDBF5C01962E7A01CE0101967D
:100B80006C0180E2F60111928A95E9F7F501B381D3
:100B9000890130E020E0712C812CA0E041E050E0A0
:100BA000F801B3FD8591B3FF8191982F8F018111D9
:100BB00017C010E000E0C801A0960FB6F894DEBFA1
:100BC0000FBECDBFDF91CF911F910F91FF90EF909E
:100BD000DF90CF90BF90AF909F908F907F900895BF
:100BE0008E3519F42115310541F1A21713064CF485
:100BF0008D3549F18D3229F4811006C08824839403
:100C00001DC0882009F464C0E92FE695E695E695B5
:100C1000EC0DFD2DF11D892F8770BA0101C0660F03
:100C20008A95EAF78081682B6083791651F09715D1
:100C300010F49F5FE9CF9150E7CFA1E02F5F3F4FC6
:100C4000AFCF812CFBCF882019F08E8180628E83FC
:100C5000AA2359F0F6019E012F5D3F4F80818095B8
:100C600080833196E217F307C9F788248394C5017E
:100C70000E94B50797FD16C0E82FE695E695E69524
:100C8000EC0DFD2DF11D208130E0AC0147705527A2
:100C900002C0359527954A95E2F720FD06C0B501BB
:100CA0000E942108882069F084CFE114F10429F022
:100CB000F7018083C70101967C019A94812C9110E1
:100CC000D6CFE114F10409F476CFF701108273CF87
:100CD000E82FE695E695E695EC0DFD2DF11D982F94
:100CE0009770BA0101C0660F9A95EAF79081692B57
:100CF0006083782EA3CF5F926F927F928F929F92A4
:100D0000AF92BF92CF92DF92EF92FF920F931F9319
:100D1000CF93DF936C01EB015A01FC01178216821D
:100D2000512CF601E380FE01E3FC8591E3FE819105
:100D3000182FEF018823E9F090E00E949B02892B95
:100D400021F0C6010E940005ECCF153241F4FE01EE
:100D5000E3FC1591E3FE1191EF01153269F4C60130
:100D60000E94B50797FD8EC01817D9F2B6010E94F0
:100D70002108852D90E08AC000E01A3231F4E3FCAE
:100D80001591E3FE1191EF0101E0F12C20ED210F0F
:100D90002A3048F101FF37C0FF2059F31836B1F16E
:100DA0001C3609F43DC0112321F3612F70E08CEE55
:100DB00090E00E949407892BE1F2912C812C00FD98
:100DC00006C0F50180809180C50102965C011E3647
:100DD00079F5F6014681578170E060E0202FC4016B
:100DE0000E94D1049ECF02606F2D70E090E080E001
:100DF00040E20E94DD04F62EFE01E3FC1591E3FEC5
:100E00001191EF01C3CFFF24FA94C8CFFE01E3FC98
:100E10001591E3FE1191EF01183609F0C4CF086077
:100E20000460FE01E3FC1591E3FE1191EF01BBCFDD
:100E30001336C1F401FD02C0FF24F394C6010E94E1
:100E4000B50797FD1FC08114910429F0F401808338
:100E5000C40101964C01FA94F110F0CF00FD61CF6E
:100E600053945FCF1B3511F59E01A4016F2DC60170
:100E70000E94A605EC01892B89F7F6018381807316
:100E800009F477CF8FEF9FEF511073CFDF91CF91A0
:100E90001F910F91FF90EF90DF90CF90BF90AF9098
:100EA0009F908F907F906F905F900895C6010E94F1
:100EB000000597FDE7CF1F36A9F130F4143641F055
:100EC000193639F0006405C01337B9F01537D1F77A
:100ED0000062202FA4016F2DC6010E941905811107
:100EE000BDCFCBCF8114910429F0F4016082C401FD
:100EF00001964C01FA94FF2071F0C6010E94B507DB
:100F00003C0197FD08C00E949B02892B59F3B60152
:100F1000C3010E9421088114910409F49FCFF401B8
:100F200010829CCF0061D5CFFC010590061621F000
:100F30000020D9F7C00108953197CF010895FC0131
:100F40000590615070400110D8F7809590958E0FF4
:100F50009F1F0895FC016150704001900110D8F767
:100F6000809590958E0F9F1F0895CF93DF93EC018E
:100F70002B8120FF1AC026FF0CC02F7B2B838E8174
:100F80009F8101969F838E838A8190E0DF91CF912C
:100F9000089522FF18C0E881F9818081082E000C95
:100FA000990B009729F420622B838FEF9FEFEECFF0
:100FB0003196F983E8832E813F812F5F3F4F3F8336
:100FC0002E839927E3CFEA85FB85199597FFF3CF09
:100FD0002B81019621F080E2822B8B83E6CF80E18A
:100FE000FBCF0F931F93CF93DF93182F092FEB01A4
:100FF0008B8181FD09C01FEF0FEF812F902FDF91B3
:10100000CF911F910F91089582FF14C02E813F81CF
:101010008C819D81281739073CF4E881F981CF0143
:1010200001969983888310838E819F8101969F8387
:101030008E83E3CFE885F985812F1995892BA1F35C
:10104000DACFFB01238120FF11C026FD0FC08F3FA7
:10105000980771F082832F7D206423832681378156
:101060002150310937832683992708958FEF9FEF09
:101070000895FA01AA27283051F1203181F1E8942E
:101080006F936E7F6E5F7F4F8F4F9F4FAF4FB1E07B
:101090003ED0B4E03CD0670F781F891F9A1FA11D76
:1010A000680F791F8A1F911DA11D6A0F711D811D77
:1010B000911DA11D20D009F468943F912AE0269F3C
:1010C00011243019305D3193DEF6CF010895462F9B
:1010D0004770405D4193B3E00FD0C9F7F6CF462F7C
:1010E0004F70405D4A3318F0495D31FD40524193E5
:1010F00002D0A9F7EACFB4E0A695979587957795A2
:101100006795BA95C9F700976105710508959B0128
:10111000AC010A2E06945795479537952795BA95B1
:10112000C9F7620F731F841F951FA01D0895F894BF
:10113000FFCF0000000300000000F7002B010000BB
:0811400041540D0A0025640072
:020000040003F7
:10E000000D9489F10D94B2F10D94B2F10D94B2F129
:10E010000D94B2F10D94B2F10D94B2F10D94B2F1F0
:10E020000D94B2F10D94B2F10D94B2F10D94B2F1E0
:10E030000D94B2F10D94B2F10D94B2F10D94B2F1D0
:10E040000D94B2F10D94B2F10D94B2F10D94B2F1C0
:10E050000D94B2F10D94B2F10D94B2F10D94B2F1B0
:10E060000D94B2F10D94B2F10D94B2F10D94B2F1A0
:10E070000D94B2F10D94B2F10D94B2F10D94B2F190
:10E080000D94B2F10D94B2F10D94B2F10D94B2F180
:10E090000D94B2F10D94B2F10D94B2F10D94B2F170
:10E0A0000D94B2F10D94B2F10D94B2F10D94B2F160
:10E0B0000D94B2F10D94B2F10D94B2F10D94B2F150
:10E0C0000D94B2F10D94B2F10D94B2F10D94B2F140
:10E0D0000D94B2F10D94B2F10D94B2F10D94B2F130
:10E0E0000D94B2F141546D656761323536300041AF
:10E0F000726475696E6F206578706C6F72657220DE
:10E1000073746B3530305632206279204D4C530099
:10E11000426F6F746C6F616465723E004875683F52
:10E1200000436F6D70696C6564206F6E203D200048
:10E130004350552054797065202020203D20005FF9
:10E140005F4156525F415243485F5F3D2000415658
:10E1500052204C696243205665723D20004743437C
:10E160002056657273696F6E203D20004350552024
:10E1700049442020202020203D20004C6F7720663D
:10E18000757365202020203D20004869676820665F
:10E190007573652020203D200045787420667573D6
:10E1A00065202020203D20004C6F636B2066757336
:10E1B000652020203D20004D617220203720323024
:10E1C000313300312E362E3800342E332E350056A2
:10E1D00023202020414444522020206F7020636F70
:10E1E00064652020202020696E73747275637469E1
:10E1F0006F6E2061646472202020496E74657272B3
:10E20000757074006E6F20766563746F7200726A49
:10E210006D702020006A6D70200057686174207056
:10E220006F72743A00506F7274206E6F7420737541
:10E2300070706F72746564004D7573742062652030
:10E2400061206C6574746572002000577269747483
:10E25000696E672045450052656164696E672045B7
:10E26000450045452065727220636E743D00504F35
:10E27000525400303D5A65726F2061646472003FF1
:10E280003D43505520737461747300403D454550C3
:10E29000524F4D207465737400423D426C696E6B41
:10E2A000204C454400453D44756D70204545505215
:10E2B0004F4D00463D44756D7020464C415348001B
:10E2C000483D48656C70004C3D4C69737420492F83
:10E2D0004F20506F72747300513D51756974005234
:10E2E0003D44756D702052414D00563D73686F7707
:10E2F00020696E7465727275707420566563746FF0
:10E30000727300593D506F727420626C696E6B00BD
:10E310002A0011241FBECFEFD1E2DEBFCDBF01E046
:10E320000CBF12E0A0E0B2E0EEE1FDEF03E00BBFB6
:10E3300002C007900D92A030B107D9F712E0A0E01B
:10E34000B2E001C01D92AE30B107E1F70F9460F367
:10E350000D948DFE01E20EBF0FEF0DBF11241FBE05
:10E360000D9460F30D9400F020E030E040ED57E0B4
:10E3700005C0FA013197F1F72F5F3F4F2817390792
:10E38000C0F308959C01260F311DC901A0E0B0E043
:10E390002F5F3F4FABBFFC018791882361F08093D3
:10E3A000C6008091C00086FFFCCF8091C0008064D1
:10E3B0008093C000EACF08958DE08093C6008091DD
:10E3C000C00086FFFCCF8091C00080648093C000B5
:10E3D0008AE08093C6008091C00086FFFCCF8091C8
:10E3E000C00080648093C00008950F94C2F10F9420
:10E3F000DCF10895FC019081992359F09093C600B7
:10E400008091C00086FFFCCF8091C0008064809323
:10E41000C0003196992379F70895282F982F929567
:10E420009F70892F805D8A3308F0895F8093C600D2
:10E430008091C00086FFFCCF8091C00080648093F3
:10E44000C000822F8F70982F905D9A3308F0995FEB
:10E450009093C6008091C00086FFFCCF8091C000E1
:10E4600080648093C00008959C01FB01853691056E
:10E470001CF46330710594F0C90164E670E00F94F8
:10E480002EFE605D7F4F6093C6008091C00086FFC6
:10E49000FCCF8091C00080648093C0002B30310598
:10E4A00014F43297B4F0C90164E670E00F942EFEC4
:10E4B0006AE070E00F942EFE605D7F4F6093C600AF
:10E4C0008091C00086FFFCCF8091C0008064809363
:10E4D000C000C9016AE070E00F942EFEC0968093E0
:10E4E000C6008091C00086FFFCCF8091C000806490
:10E4F0008093C00008951F93182F8EE692EE60E07F
:10E500000F94C2F11093C6008091C00086FFFCCF2B
:10E510008091C00080648093C0000F94DCF11F9153
:10E5200008952F923F924F925F926F927F928F92B7
:10E530009F92AF92BF92CF92DF92EF92FF920F9392
:10E540001F93DF93CF93CDB7DEB762970FB6F894E2
:10E55000DEBF0FBECDBF382E622ECA01DB015C01CB
:10E560006D01772420E2222E2E010894411C511CBB
:10E570008BC081E0A81680E0B80681E0C80680E084
:10E58000D80628F0C601AA27BB270F940DF2BB2797
:10E59000AD2D9C2D8B2D0F940DF28A2D0F940DF225
:10E5A0002092C6008091C00086FFFCCF8091C00001
:10E5B00080648093C0009DE29093C6008091C0006B
:10E5C00086FFFCCF8091C00080648093C0002092C1
:10E5D000C6008091C00086FFFCCF8091C00080649F
:10E5E0008093C00019828601750188249924A1E0D6
:10E5F0003A1651F03A1620F0B2E03B1661F409C029
:10E600000BBFF701779007C0C7010F9477FE782EF4
:10E6100002C0F7017080872D0F940DF22092C60082
:10E620008091C00086FFFCCF8091C0008064809301
:10E63000C000872D8052F401EF70F0708F3520F408
:10E64000E40DF51D708204C0E40DF51D8EE280839B
:10E650000894E11CF11C011D111D0894811C911CE2
:10E6600090E18916910409F0C2CF80E190E0A0E02A
:10E67000B0E0A80EB91ECA1EDB1E198AC2010F9493
:10E68000FAF10F94DCF16A94662009F072CF629679
:10E690000FB6F894DEBF0FBECDBFCF91DF911F91B3
:10E6A0000F91FF90EF90DF90CF90BF90AF909F9031
:10E6B0008F907F906F905F904F903F902F90089534
:10E6C0002F923F924F925F926F927F928F929F9282
:10E6D000AF92BF92CF92DF92EF92FF920F931F9370
:10E6E000DF93CF93CDB7DEB7CD53D1400FB6F894BB
:10E6F000DEBF0FBECDBF01E20EBF0FEF0DBF94B75F
:10E70000F894A89514BE80916000886180936000A1
:10E7100010926000789493FF05C0E0910002F091A0
:10E7200001021995279A2F9A8091C00082608093E8
:10E73000C00080E18093C40088E18093C1000000A4
:10E74000EE24FF24870144E0A42EB12CCC24DD2448
:10E7500024C0C5010197F1F70894E11CF11C011DCB
:10E76000111D21E2E2162EE4F20620E0020720E06D
:10E77000120718F031E0C32ED12CC801B70127ECE5
:10E780003BE140E050E00F9441FE611571058105C9
:10E79000910519F485B1805885B98091C00087FD35
:10E7A00003C0C114D104A9F2A6014F5F5F4FC25E3E
:10E7B000DE4F59834883CE51D140C25EDE4F8881FF
:10E7C0009981CE51D140019711F00D9410FEC05D9A
:10E7D000DE4F19821882C053D14060E0C15DDE4F28
:10E7E0001882CF52D14088249924C35DDE4F19820C
:10E7F0001882CD52D140C05EDE4F188219821A8233
:10E800001B82C052D140CE5CDE4F188219821A8220
:10E810001B82C253D140EE24FF2487010BBFF701B6
:10E8200007911691C45CDE4F19830883CC53D14005
:10E830000D940BFEC25EDE4F28813981CE51D1404E
:10E840002130310509F52091C600C25EDE4F1982E4
:10E850001882CE51D14022C02F5F3F4F4F4F5F4FA4
:10E86000213082E138078AE7480780E0580780F0C6
:10E87000C45CDE4FE881F981CC53D140EF5FFF4F9C
:10E8800019F0EE27FF27099420E030E040E050E047
:10E890008091C00087FFE0CF2091C600C35DDE4FAE
:10E8A00048815981CD52D1404F5F5F4FC35DDE4FEC
:10E8B00059834883CD52D140213209F063C64A3092
:10E8C000510508F05FC60894811C911C53E0851621
:10E8D000910409F059C600E010E018C081E280936D
:10E8E000C6008091C00086FFFCCF8091C00080648C
:10E8F0008093C0002F5F3F4F2931310579F70F9486
:10E90000DCF10F5F1F4F0530110519F020E030E0FA
:10E91000E5CF10920A0210920B0210920C02109294
:10E920000D02109206021092070210920802109235
:10E930000902109202021092030210920402109235
:10E9400005028FEE90EE60E00F94F5F180E191EE1C
:10E9500060E00F94C2F18091C00087FFFCCF9091DE
:10E96000C600903608F09F759032B8F09093C600BC
:10E970008091C00086FFFCCF8091C00080648093AE
:10E98000C000A0E2A093C6008091C00086FFFCCF2B
:10E990008091C00080648093C000983409F4D7C18E
:10E9A0009934B8F4923409F459C1933458F490333B
:10E9B00019F1903308F4E3C59F33A1F1903409F0C5
:10E9C000DEC5BDC0953409F470C1963409F0D7C5D1
:10E9D00098C1923509F42BC2933538F49C3409F46C
:10E9E000F5C1913509F0CBC518C2963509F445C279
:10E9F000993509F0C4C567C483E792EE62E00F94CD
:10EA0000F5F110920602109207021092080210927D
:10EA1000090210920A0210920B0210920C0210923C
:10EA20000D0213C18FE792EE62E00F94F5F18FEEC5
:10EA300090EE60E00F94F5F181E291EE60E00F94CA
:10EA4000C2F187EB91EE60E00F94F5F180E391EE77
:10EA500060E00F94C2F184EE90EE60E00F94F5F167
:10EA60008FE391EE60E00F94C2F186E090E061E008
:10EA700070E00F9434F20F94DCF18DE591EE60E0DC
:10EA80000F94C2F189EC91EE60E00F94F5F18EE401
:10EA900091EE60E00F94C2F183EC91EE60E00F9490
:10EAA000F5F18CE691EE60E00F94C2F18EE10F94E7
:10EAB0000DF288E90F940DF281E00F940DF20F949E
:10EAC000DCF18BE791EE60E00F94C2F119E0E0E039
:10EAD000F0E010935700E4918E2F0F940DF20F94F5
:10EAE000DCF18AE891EE60E00F94C2F1E3E0F0E03F
:10EAF00010935700E4918E2F0F940DF20F94DCF1D8
:10EB000089E991EE60E00F94C2F1E2E0F0E0109349
:10EB10005700E4918E2F0F940DF20F94DCF188EAE8
:10EB200091EE60E00F94C2F1E1E0F0E01093570045
:10EB30001491812F0F940DF20F94DCF107CF8BE825
:10EB400092EE62E00F94F5F18BE492EE60E00F94A8
:10EB5000F5F10F94DCF100E010E019C0C8016F2D51
:10EB60000F947FFEFF2031F489E492EE60E00F9471
:10EB7000C2F10BC0F092C6008091C00086FFFCCFAE
:10EB80008091C00080648093C0000F5F1F4FC80158
:10EB900081519F41A0E0B0E0ABBFFC01F790BAE229
:10EBA000FB1621F0E2E000301E07C1F60F94DCF105
:10EBB0000F94DCF187E592EE60E00F94F5F10F948D
:10EBC000DCF1CC24DD2400E010E01EC0C8010F946D
:10EBD00077FEF82E882331F489E492EE60E00F94FA
:10EBE000C2F10BC08093C6008091C00086FFFCCFAD
:10EBF0008091C00080648093C000FE1419F00894D6
:10EC0000C11CD11C0F5F1F4FC80181519F41A0E063
:10EC1000B0E0ABBFFC01E790FAE2EF1621F022E092
:10EC20000030120799F60F94DCF10F94DCF182E6C4
:10EC300092EE60E00F94C2F1C60161E070E00F94C3
:10EC400034F20F94DCF10F94DCF110920202109276
:10EC50000302109204021092050278CE89E992EE26
:10EC600062E00F94F5F1279A2F9A16C02F9880E052
:10EC700090E0E0EDF7E03197F1F7019684369105E9
:10EC8000C1F72F9A80E090E0E0EDF7E03197F1F7DF
:10EC9000019684369105C1F78091C00087FFE6CFC9
:10ECA0008091C00087FFFCCF64C485EA92EE62E0E9
:10ECB0000F94F5F140910202509103026091040219
:10ECC0007091050281E020E10F9491F2809102029F
:10ECD00090910302A0910402B091050280509F4FD1
:10ECE000AF4FBF4F8093020290930302A0930402A0
:10ECF000B093050280509041A040B04008F426CE69
:10ED0000A4CF83EB92EE62E00F94F5F140910602FE
:10ED100050910702609108027091090280E020E1A1
:10ED20000F9491F28091060290910702A09108023F
:10ED3000B091090280509F4FAF4FBF4F80930602A2
:10ED400090930702A0930802B0930902FFCD80ECD4
:10ED500092EE62E00F94F5F183E792EE60E00F949B
:10ED6000F5F18FE792EE60E00F94F5F18BE892EE0B
:10ED700060E00F94F5F189E992EE60E00F94F5F10F
:10ED800085EA92EE60E00F94F5F183EB92EE60E09D
:10ED90000F94F5F180EC92EE60E00F94F5F187ECC2
:10EDA00092EE60E00F94F5F188ED92EE60E00F9442
:10EDB000F5F18FED92EE60E00F94F5F18AEE92EEB0
:10EDC00060E00F94F5F183E093EEBDCD87EC92EE19
:10EDD00062E00F94F5F181E40F947BF282E40F94EA
:10EDE0007BF283E40F947BF284E40F947BF285E45E
:10EDF0000F947BF286E40F947BF287E40F947BF20E
:10EE000088E40F947BF28AE40F947BF28BE40F94F6
:10EE10007BF28CE40F947BF299CD88ED92EE62E068
:10EE20000F94F5F1772473948824992409C48FED05
:10EE300092EE62E00F94F5F140910A0250910B02BC
:10EE400060910C0270910D0282E020E10F9491F22A
:10EE500080910A0290910B02A0910C02B0910D02D8
:10EE600080509F4FAF4FBF4F80930A0290930B0289
:10EE7000A0930C02B0930D0269CD8AEE92EE62E08F
:10EE80000F94F5F184EE90EE60E00F94F5F18FECC5
:10EE900091EE60E00F94F5F1662477244301CC5D98
:10EEA000DE4F19821882C452D140D401C301B695F5
:10EEB000A79597958795CA5DDE4F88839983AA8326
:10EEC000BB83C652D140CC5DDE4FA881B981C4520C
:10EED000D1401196CC5DDE4FB983A883C452D14096
:10EEE000CD0162E070E00F9434F2B0E2B093C6005E
:10EEF0008091C00086FFFCCF8091C0008064809329
:10EF0000C000EDE2E093C6008091C00086FFFCCF18
:10EF10008091C00080648093C000F0E2F093C6004E
:10EF20008091C00086FFFCCF8091C00080648093F8
:10EF3000C000CA5DDE4FE880F9800A811B81C6529D
:10EF4000D140BB27A12F902F8F2D0F940DF2CA5DBA
:10EF5000DE4F8881C652D1400F940DF2B0E2FB2EF5
:10EF6000F092C6008091C00086FFFCCF8091C00067
:10EF700080648093C0000DE30093C6008091C000C0
:10EF800086FFFCCF8091C00080648093C00010E2B7
:10EF90001093C6008091C00086FFFCCF8091C00016
:10EFA00080648093C0008BBEF3012791C65DDE4F65
:10EFB0002883CA52D140A22EBB24CC24DD2408943D
:10EFC000611C711C811C911C8BBEF3018791282E42
:10EFD0003324442455240894611C711C811C911C09
:10EFE0008BBEF3013791C55DDE4F3883CB52D140E4
:10EFF0000894611C711C811C911C8BBEF30147910C
:10F00000C45DDE4F4883CC52D140ADEFEA2EAFEF66
:10F01000FA2EAFEF0A2FAFEF1A2F6E0C7F1C801E57
:10F02000911E142D032DF22CEE24EA0CFB1C0C1D5A
:10F030001D1D0F940DF220E22093C6008091C000A8
:10F0400086FFFCCF8091C00080648093C000C65DC5
:10F05000DE4F8881CA52D1400F940DF230E23093D6
:10F06000C6008091C00086FFFCCF8091C000806404
:10F070008093C000C45DDE4F8881CC52D1400F9494
:10F080000DF240E24093C6008091C00086FFFCCFA5
:10F090008091C00080648093C000C55DDE4F888190
:10F0A000CB52D1400F940DF250E25093C6008091A4
:10F0B000C00086FFFCCF8091C00080648093C000B8
:10F0C0008FEFE8168FEFF80680E0080780E018075A
:10F0D00031F484E092EE60E00F94C2F1DFC0D80119
:10F0E000C7018070907CA070B0708050904CA040A0
:10F0F000B040D1F52FEF3FE340E050E0E222F322B1
:10F1000004231523CA5DDE4FA880B980CA80DB8046
:10F11000C652D140AE0CBF1CC01ED11EAA0CBB1CD7
:10F12000CC1CDD1C8EE092EE60E00F94C2F1BB2798
:10F13000A12F902F8F2D0F940DF28E2D0F940DF285
:10F1400030E23093C6008091C00086FFFCCF8091F2
:10F15000C00080648093C0004EE34093C60080915D
:10F16000C00086FFFCCF87C08EE09EEFA0E0B0E03D
:10F17000E822F9220A231B239CE0E91694E9F90608
:10F1800090E0090790E0190709F088C0C45DDE4FE0
:10F19000A881CC52D140EA2EFF2400E010E0102FCD
:10F1A0000F2DFE2CEE24C55DDE4FB881CB52D14031
:10F1B000EB0EF11C011D111DD601C501817090706F
:10F1C000A070B070DC0199278827E80EF91E0A1F8D
:10F1D0001B1F20EF30E040E050E0A222B322C42207
:10F1E000D52241E1AA0CBB1CCC1CDD1C4A95D1F7F1
:10F1F000EA0CFB1C0C1D1D1D81E090E0A0E0B0E0BE
:10F20000282239224A225B2235E1220C331C441C7D
:10F21000551C3A95D1F7E20CF31C041D151D57013E
:10F220006801AA0CBB1CCC1CDD1C85E192EE60E0E1
:10F230000F94C2F1C801AA27BB270F940DF2BB2778
:10F24000A12F902F8F2D0F940DF28E2D0F940DF274
:10F2500090E29093C6008091C00086FFFCCF809121
:10F26000C00080648093C000AEE3A093C60080918C
:10F27000C00086FFFCCF8091C00080648093C000F6
:10F28000C601AA27BB270F940DF2BB27AD2D9C2DDD
:10F290008B2D0F940DF28A2D0F940DF20F94DCF14B
:10F2A000CC5DDE4FE881F981C452D140F99709F471
:10F2B0004DCBF4E0EF2EF12C012D112D6E0C7F1CA7
:10F2C000801E911EF2CD83E093EE62E00F94F5F183
:10F2D0008AE192EE60E00F94C2F18091C00087FF56
:10F2E000FCCF1091C6001F751093C6008091C0001E
:10F2F00086FFFCCF8091C00080648093C0000F9493
:10F30000DCF1812F81548A3108F036C1163409F4BA
:10F3100095C0173490F4133409F44EC0143430F40B
:10F320001134F1F0123409F01DC130C0143409F465
:10F3300059C0153409F016C16BC01A3409F4C4C0A1
:10F340001B3438F4173409F48FC0183409F00AC19B
:10F35000A1C01B3409F4D2C01C3409F003C1E8C0B9
:10F360008FEF81B90DC082B1809582B980E090E0C5
:10F37000E0EDF7E03197F1F70196883C9105C1F790
:10F380008091C00087FFEFCF12B8EFC08FEF84B934
:10F390000DC085B1809585B980E090E0E0EDF7E0A3
:10F3A0003197F1F70196883C9105C1F78091C00033
:10F3B00087FFEFCF15B8D9C08FEF87B90DC088B1DF
:10F3C000809588B980E090E0E0EDF7E03197F1F7C3
:10F3D0000196883C9105C1F78091C00087FFEFCF6F
:10F3E00018B8C3C08FEF8AB90DC08BB180958BB9A7
:10F3F00080E090E0E0EDF7E03197F1F70196883C8E
:10F400009105C1F78091C00087FFEFCF1BB8ADC059
:10F410008FEF8DB90DC08EB180958EB980E090E0F0
:10F42000E0EDF7E03197F1F70196883C9105C1F7DF
:10F430008091C00087FFEFCF1EB897C08FEF80BBD1
:10F440000DC081B3809581BB80E090E0E0EDF7E0F6
:10F450003197F1F70196883C9105C1F78091C00082
:10F4600087FFEFCF11BA81C08FEF83BB0DC084B38C
:10F47000809584BB80E090E0E0EDF7E03197F1F714
:10F480000196883C9105C1F78091C00087FFEFCFBE
:10F4900014BA6BC08FEF809301010FC080910201FD
:10F4A00080958093020180E090E0E0EDF7E03197F5
:10F4B000F1F70196883C9105C1F78091C00087FF64
:10F4C000EDCF1092020151C08FEF809304010FC065
:10F4D0008091050180958093050180E090E0E0ED4A
:10F4E000F7E03197F1F70196883C9105C1F78091DB
:10F4F000C00087FFEDCF1092050137C08FEF8093DA
:10F5000007010FC08091080180958093080180E079
:10F5100090E0E0EDF7E03197F1F70196883C910536
:10F52000C1F78091C00087FFEDCF109208011DC088
:10F530008FEF80930A010FC080910B01809580931B
:10F540000B0180E090E0E0EDF7E03197F1F70196F4
:10F55000883C9105C1F78091C00087FFEDCF1092E4
:10F560000B0103C085E292EEEEC98091C00087FFD7
:10F57000FCCF8091C600EAC988E392EEE4C98CE131
:10F5800091EEE1C988249924933011F1943028F444
:10F59000913089F09230B8F408C0953061F195301F
:10F5A000F0F0963009F048C043C02B3109F042C951
:10F5B00091E06BE13FC96227C15DDE4F2883CF52E6
:10F5C000D14092E037C9B22FA0E0622793E032C960
:10F5D000822F90E0A82BB92B622794E02BC92E3004
:10F5E00009F039C3622795E0C05DDE4F19821882A9
:10F5F000C053D1401FC9E1E0F0E0EC0FFD1FC05D3A
:10F60000DE4F08811981C053D140E00FF11F2083E4
:10F610000F5F1F4FC05DDE4F19830883C053D14079
:10F6200062270A171B0709F005C9D80196E002C92D
:10F63000261709F010C303C0973009F0FBC87724E0
:10F640009981933109F412C19431C8F4963009F4C8
:10F65000D8C0973050F4923009F406C1933009F4C1
:10F660006DC0913009F059C253C0913109F477C08F
:10F67000923108F0BBC0903109F04FC2F5C098310B
:10F6800009F487C0993150F4953109F4EFC09531F0
:10F6900008F4C6C1963109F040C2C2C19A3109F4DA
:10F6A0006CC09A3108F491C09B3109F45BC09D3164
:10F6B00009F033C29D81903359F48F81882311F46E
:10F6C0009EE11CC0813011F091E018C098E916C08D
:10F6D000892F807591F0903539F4E0E0F0E089E011
:10F6E0008093570094910AC0983539F4E3E0F0E034
:10F6F00089E080935700949101C090E01A821B82A8
:10F700008D818C831D829E831F8227E030E009C299
:10F710001A8288E08B8381E48C8386E58D8382E581
:10F720008E8389E48F8383E5888780E589878FE5E9
:10F730008A8782E38B872BE030E0F3C18A818139AD
:10F7400041F0823941F0803911F48FE005C080E04A
:10F7500003C082E001C08AE01A828B8344C0772410
:10F76000739482C08D81882311F48EE12CC0813086
:10F7700011F081E028C088E926C01A82E1E0F0E0BB
:10F7800089E08093570084918B831C8224E030E0D1
:10F79000C8C18B81803589F48C81883039F4E2E0EE
:10F7A000F0E089E08093570084910DC0E0E0F0E044
:10F7B00089E080935700849106C0E3E0F0E089E09F
:10F7C0008093570084911A82DFCF8D81836C99E0FA
:10F7D000E1E0F0E0082E90935700E89507B600FCB2
:10F7E000FDCF1A821B8223E030E09BC180EC8A832C
:10F7F000CE5CDE4F188219821A821B82C253D1401E
:10F800008EC18A8190E0A0E0B0E0582F44273327D2
:10F8100022278B8190E0A0E0B0E0DC0199278827C7
:10F82000282B392B4A2B5B2B8D8190E0A0E0B0E098
:10F83000282B392B4A2B5B2B8C8190E0A0E0B0E089
:10F84000BA2FA92F982F8827282B392B4A2B5B2BCF
:10F85000220F331F441F551FC05EDE4F288339839C
:10F860004A835B83C052D1401A8259C13A81C95C34
:10F87000DE4F3883C753D140CA5CDE4F1882C6536F
:10F88000D1408B81C82EDD24CA5CDE4F488159816E
:10F89000C653D140C42AD52A933109F082C0CE5C28
:10F8A000DE4F88819981AA81BB81C253D1408050AB
:10F8B000904CA340B04030F583E0CE5CDE4FE88052
:10F8C000F9800A811B81C253D140F70100935B008C
:10F8D00080935700E89507B600FCFDCFCE5CDE4F65
:10F8E000088119812A813B81C253D14000501F4FAA
:10F8F0002F4F3F4FCE5CDE4F088319832A833B8313
:10F90000C253D140C05EDE4F488159816A817B81FC
:10F91000C052D140DE011B9631E08C9111962C91A2
:10F9200011971296C75CDE4F2883C953D140C85C3B
:10F93000DE4F1882C853D14090E0C85CDE4FE881AA
:10F94000F981C853D1408E2B9F2B0C01FA01609393
:10F950005B0030935700E89511244E5F5F4F6F4F67
:10F960007F4F0EEFE02E0FEFF02ECE0CDF1CC114F8
:10F97000D10499F685E0C05EDE4F088119812A81A5
:10F980003B81C052D140F80120935B008093570027
:10F99000E89507B600FCFDCF81E180935700E8951C
:10F9A00035C0C05EDE4F88819981AA81BB81C0527B
:10F9B000D140B695A795979587957C018601ABE0D8
:10F9C000AA2EB12CAC0EBD1E0BC0D5016D915D01F0
:10F9D000C7010F947FFE0894E11CF11C01501040F8
:10F9E0000115110591F7A60160E070E0440F551F65
:10F9F000661F771FC05EDE4FE880F9800A811B8199
:10FA0000C052D1404E0D5F1D601F711F1A82C05E33
:10FA1000DE4F488359836A837B83C052D1407FC0C5
:10FA2000FA80C55CDE4FF882CB53D140C65CDE4F16
:10FA30001882CA53D1408B81C82EDD24C65CDE4FAC
:10FA400008811981CA53D140C02AD12A1A828981DA
:10FA5000BE016D5F7F4F843121F59601C05EDE4FA0
:10FA6000E880F9800A811B81C052D1400BBFF701A9
:10FA700087919691DB018C9311969C936E5F7F4FDB
:10FA8000D801C7010296A11DB11DC05EDE4F88835B
:10FA90009983AA83BB83C052D14022503040F1F6F3
:10FAA00036C0C05EDE4F288139814A815B81C052F9
:10FAB000D1400894C108D108760100E010E0089414
:10FAC000C11CD11C0894E11CF11C011D111DE20E8A
:10FAD000F31E041F151F21BDBB27A52F942F832FB5
:10FAE00082BD2F5F3F4F4F4F5F4FF89A80B5DB01CC
:10FAF0008D93BD012E153F054007510761F7C05E8C
:10FB0000DE4F288339834A835B83C052D1409601FC
:10FB10002D5F3F4FFB01108204C080EC8A8322E0FE
:10FB200030E08BE18093C6008091C00086FFFCCF5F
:10FB30008091C00080648093C000C15DDE4FF88179
:10FB4000CF52D140F093C6008091C00086FFFCCF19
:10FB50008091C00080648093C000432F3093C60022
:10FB60008091C00086FFFCCF8091C00080648093AC
:10FB7000C000922F2093C6008091C00086FFFCCF6A
:10FB80008091C00080648093C0008EE08093C600A6
:10FB90008091C00086FFFCCF8091C000806480937C
:10FBA000C00065E1C15DDE4FE880CF52D1406E25D7
:10FBB00069276427FE01319610C090819093C6009A
:10FBC0008091C00086FFFCCF31968091C000806498
:10FBD0008093C0006927215030402115310569F715
:10FBE0006093C6008091C00086FFFCCF8091C0006A
:10FBF00080648093C00085B1805885B9772081F4F6
:10FC0000C15DDE4F0881CF52D1400F5FC15DDE4F35
:10FC10000883CF52D14090E0A0E0B0E00D941AF4F8
:10FC200027982F9880E090E020ED37E0F901319798
:10FC3000F1F7019684369105C9F700008091C00064
:10FC40008D7F8093C00081E180935700E895EE2777
:10FC5000FF270994FFCF90E00D941AF497FB092E2B
:10FC600007260AD077FD04D02ED006D000201AF443
:10FC7000709561957F4F0895F6F7909581959F4F08
:10FC80000895A1E21A2EAA1BBB1BFD010DC0AA1FDD
:10FC9000BB1FEE1FFF1FA217B307E407F50720F0F5
:10FCA000A21BB30BE40BF50B661F771F881F991F70
:10FCB0001A9469F760957095809590959B01AC01B9
:10FCC000BD01CF010895AA1BBB1B51E107C0AA1FAC
:10FCD000BB1FA617B70710F0A61BB70B881F991FED
:10FCE0005A95A9F780959095BC01CD010895F99991
:10FCF000FECF92BD81BDF89A992780B50895262F31
:10FD0000F999FECF1FBA92BD81BD20BD0FB6F89400
:0EFD1000FA9AF99A0FBE01960895F894FFCF63
:00000001FF
