:100000000C947C000C949D000C949D000C949D001D
:100010000C949D000C949D000C949D000C949D00EC
:100020000C949D000C949D000C949D000C949D00DC
:100030000C949D000C949D000C949D000C949D00CC
:100040000C949D000C949D000C949D000C949D00BC
:100050000C949D000C949D000C949D000C949D00AC
:100060000C949D000C942F020C944A020C949D0059
:100070000C949D000C949D000C949D000C949D008C
:100080000C949D000C949D000C949D000C949D007C
:100090000C94F6010C9411020C949D000C949D009C
:1000A0000C949D000C949D000C949D000C949D005C
:1000B0000C949D000C949D000C949D000C949D004C
:1000C0000C949D000C949D000C949D000C94BD011B
:1000D0000C94D8010C949D000C9484010C949F0105
:1000E0000C949D000C942B010C94F7006364696ED2
:1000F0006F70737578585B0011241FBECFEFD1E28B
:10010000DEBFCDBF00E00CBF23E0A6E1B2E001C03E
:100110001D92AD32B207E1F712E0A0E0B2E0E2E3F7
:10012000F1E100E00BBF02C007900D92A631B107CC
:10013000D9F70E9468020C9497080C9400009091E3
:100140001E0293959F71B0911A02B917E1F3A92F7E
:10015000B0E0A95DBD4F8C93F89490931E029091EE
:100160003101906290933101189590911D02939501
:100170009F71B0911902B917E1F3A92FB0E0A95509
:10018000BD4F8C93F89490931D029091D100906292
:100190009093D100189590911C0293959F71B09106
:1001A0001802B917E1F3A92FB0E0A959BD4F8C93FC
:1001B000F89490931C029091C90090629093C900AA
:1001C000189590911B0293959F71B0911702B917E2
:1001D000E1F3A92FB0E0A95FBC4F8C93F894909302
:1001E0001B029091C10090629093C1001895CF932B
:1001F000C82FFB018485958582309105D1F083302D
:10020000910501F1019761F0CA3019F48DE00E9467
:10021000E1008C2F0E94E10090E080E0CF910895F2
:10022000CA3019F48DE00E94CB008C2F0E94CB00C5
:10023000F3CFCA3019F48DE00E94B5008C2F0E94D4
:10024000B500EACFCA3019F48DE00E949F008C2FD0
:100250000E949F00E1CFFC01848595858230910545
:1002600009F42EC08330910509F43CC00197B1F028
:100270009091200280911F029817D1F39F5F9F7188
:10028000A92FB0E0A95BBD4F8C91909320020E94F2
:10029000E100082E000C990B9927089590912202F5
:1002A000809121029817D1F39F5F9F71A92FB0E031
:1002B000A957BD4F8C91909322020E94CB00E9CFA9
:1002C00090912402809123029817D1F39F5F9F7130
:1002D000A92FB0E0A951BD4F8C91909324020E94A8
:1002E000B500D7CF90912602809125029817D1F3BF
:1002F0009F5F9F71A92FB0E0A953BD4F8C91909340
:1003000026020E949F00C5CF0F930FB79F93909135
:100310003601EF93FF93E0912502F0912602E395D9
:10032000EF71FE1731F0E0932502F0E0E953FD4F45
:100330009083FF91EF919F910FBF0F9118950F93AD
:100340000FB7EF93FF93E0911A02F0911E02E3952D
:10035000EF71EF1305C0F0913101FF7DF093310192
:10036000E0931A02F0E0E95DFD4FE081E093360191
:10037000FF91EF910FBF0F9118950F930FB79F93B8
:100380009091D600EF93FF93E0912302F091240225
:10039000E395EF71FE1731F0E0932302F0E0E951AD
:1003A000FD4F9083FF91EF919F910FBF0F91189593
:1003B0000F930FB7EF93FF93E0911902F0911D0295
:1003C000E395EF71EF1305C0F091D100FF7DF0933D
:1003D000D100E0931902F0E0E955FD4FE081E09390
:1003E000D600FF91EF910FBF0F9118950F930FB7A4
:1003F0009F939091CE00EF93FF93E0912102F091B3
:100400002202E395EF71FE1731F0E0932102F0E054
:10041000E957FD4F9083FF91EF919F910FBF0F918F
:1004200018950F930FB7EF93FF93E0911802F09197
:100430001C02E395EF71EF1305C0F091C900FF7D39
:10044000F093C900E0931802F0E0E959FD4FE08114
:10045000E093CE00FF91EF910FBF0F9118950F938E
:100460000FB79F939091C600EF93FF93E0911F0207
:10047000F0912002E395EF71FE1731F0E0931F0237
:10048000F0E0E95BFD4F9083FF91EF919F910FBFEB
:100490000F9118950F930FB7EF93FF93E091170209
:1004A000F0911B02E395EF71EF1305C0F091C100CD
:1004B000FF7DF093C100E0931702F0E0E95FFC4F8D
:1004C000E081E093C600FF91EF910FBF0F91189567
:1004D00098E09093C4001092C50088E98093C10011
:1004E0009093CC001092CD008093C90080E092E000
:1004F00090932A03809329039093280380932703E2
:100500007894EEE0F2E08191882311F044DEFBCF95
:10051000C3E1D2E01F921F92DF93CF930E94BB02F0
:100520001F921F920E94A7020F900F900F900F90A2
:100530000F900F90EFCF91110C94A402803219F01C
:1005400089508550C8F70895992788270895CF9333
:10055000DF93CDB7DEB7AE014A5F5F4FFA0161911D
:100560007191AF018091290390912A030E94CF02DB
:10057000DF91CF910895CF93DF93CDB7DEB7AE0172
:100580004A5F5F4FFA0161917191AF01809127033A
:10059000909128030E947B06DF91CF9108952F92BE
:1005A0003F924F925F926F927F928F929F92AF9203
:1005B000BF92CF92DF92EF92FF920F931F93CF9350
:1005C000DF9300D000D000D01F921F92CDB7DEB7CE
:1005D0007C013B018A01FC0117821682838181FF25
:1005E000DDC1CE0101965C01F7019381F30193FD1A
:1005F000859193FF81913F01882309F453C185328E
:1006000039F493FD859193FF81913F01853229F45F
:10061000B70190E00E94F107E7CF912C212C312CFB
:10062000FFE1F31538F08B3211F190F4803209F1CB
:10063000833229F137FC3CC020ED280F2A3050F5D9
:1006400036FE20C08AE0989E200D1124922E06C00E
:100650008D3291F0803371F7689430F8F30193FD97
:10066000859193FF81913F018111DACF21C0689478
:1006700031F8689432F8F2CF689433F8EFCF689489
:1006800034F8ECCFEAE02E9E200D1124222E68943F
:1006900035F8E4CF8E3229F436FC04C1689436F87C
:1006A000DDCF8C3619F4689437F8D8CF8836B1F29C
:1006B000982F9F7D95549330E0F08336A1F18337D6
:1006C000C1F1833509F063C02801F2E04F0E511CDF
:1006D000F801C080D180692D70E036FC02C06FEF58
:1006E0007FEFC6010E949F074C01689437F8820192
:1006F0000AC00C5F1F4FFFE3F98388248394912C79
:100700006501E89437F833FE2DC0522C8114910412
:1007100071F5552009F468CFB70180E290E00E949E
:10072000F1075A94F6CFF801808189830E5F1F4F3D
:10073000E4CF2801F2E04F0E511CF801C080D180B7
:10074000692D70E036FC02C06FEF7FEFC6010E949A
:10075000AA074C018201D5CFB70180E290E00E9448
:10076000F1072A942814190409F0B0F7CECFF60146
:1007700037FC859137FE81916F01B70190E00E94AF
:10078000F10751105A94F1E08F1A9108BFCF8436C7
:1007900019F0893609F077C0F80137FE6BC0608127
:1007A0007181828193810C5F1F4FF32DFF763F2E65
:1007B00097FF09C090958095709561957F4F8F4FF9
:1007C0009F4F689437F82AE030E0A5010E9439086D
:1007D000C82ECA188C2C432C36FE0CC0E89440F866
:1007E000C91440F434FE05C032FC03C0F32DFE7E74
:1007F0004F2E892C44FEAAC0FE01EC0DF11D808114
:10080000803309F09CC0242D297E422E842D8870CF
:10081000582E43FCAAC040FEA4C09C2C821418F49D
:100820002C0C922C981844FEA6C0B70180E390E0EF
:100830000E94F10742FE09C088E790E041FE02C035
:1008400088E590E0B7010E94F107C91408F49FC041
:10085000CA94D12C9FEFC91AD90ACA0CDB1CF60125
:1008600082916F01B70190E00E94F107AC14BD04C2
:10087000B1F74FCF60817181072E000C880B990B67
:100880000E5F1F4F92CFD32CE894D4F82AE030E0CB
:100890008537E1F1232D297FD22E8F36A9F1F0F48F
:1008A000883551F1F701868197812B960FB6F89420
:1008B000DEBF0FBECDBFDF91CF911F910F91FF9093
:1008C000EF90DF90CF90BF90AF909F908F907F90F0
:1008D0006F905F904F903F902F900895803749F030
:1008E000883701F7D4FE02C06894D2F820E130E0E6
:1008F0000DC06894D4F8F6CF34FE03C0822F866012
:10090000D82E20E132E002C028E030E0F801D7FE26
:100910000FC060817181828193810C5F1F4FA5019F
:100920000E943908C82ECA183D2CE89437F852CFD7
:100930006081718190E080E00E5F1F4FF0CF42FC3C
:1009400002C0839463CF8394839460CF842D867890
:1009500009F45CCFF6CFB70180E290E00E94F10786
:1009600083948214C0F3512C5ECF522C58188214F9
:1009700008F459CFF8CF842D867809F466CF8BE23E
:1009800041FE80E247FC8DE2B70190E05CCFB70109
:1009900080E390E00E94F1079A9457CF8FEF9FEF8A
:1009A00084CF20FD09C0FC0123FD05C022FF02C049
:1009B0007383628351834083089544FD17C046FDCD
:1009C0001DC0DB01FC01AA0FBB1FEE1FFF1F10940F
:1009D000D1F76A0F7B1F8E1F9F1F660F771F881F1F
:1009E000991F620F711D811D911D089533E0660FDF
:1009F000771F881F991F3150D1F7F3CF34E0F7CF1D
:100A00000F931F93CF93DF938C01C8010E94B5070A
:100A1000EC0197FD08C00E949B02892BB1F7B80139
:100A2000CE010E942108CE01DF91CF911F910F913D
:100A300008958F929F92AF92BF92EF92FF920F9381
:100A40001F93CF93DF938C01D62F7A01B22E0E9491
:100A5000B5079C0133272B32310529F02D323105A2
:100A6000A9F46894B7F8D15061F480E0DF91CF9198
:100A70001F910F91FF90EF90BF90AF909F908F903C
:100A80000895C8010E94B50797FDEFCFCB2DCD7F0C
:100A90002B2D2073F9F48033E9F4AA24AA94AD0E27
:100AA00089F0C8010E94B50797FD0CC0282F2F7D43
:100AB000283561F4C264D25029F0C8010E94B507FC
:100AC00097FF08C0812C912C54011BC0B6FE2BC08F
:100AD000C260DA2D812C912C540120ED280F283092
:100AE00028F1C4FD09C02A3008F1C6FF05C02F7DDA
:100AF0003FEE320F3630C8F0B8010E942108C1FF26
:100B0000B4CFC7FF08C0B094A09490948094811C87
:100B1000911CA11CB11C2C2FB501A401C7010E947E
:100B2000D10481E0A3CFC261D4CF27504C2FC5019F
:100B3000B4010E94DD044B015C01C260D15009F395
:100B4000C8010E94B50797FFC8CFD9CF7F928F9277
:100B50009F92AF92BF92CF92DF92EF92FF920F934C
:100B60001F93CF93DF93CDB7DEB7A0970FB6F8945E
:100B7000DEBF0FBECDBF5C01962E7A01CE0101967D
:100B80006C0180E2F60111928A95E9F7F501B381D3
:100B9000890130E020E0712C812CA0E041E050E0A0
:100BA000F801B3FD8591B3FF8191982F8F018111D9
:100BB00017C010E000E0C801A0960FB6F894DEBFA1
:100BC0000FBECDBFDF91CF911F910F91FF90EF909E
:100BD000DF90CF90BF90AF909F908F907F900895BF
:100BE0008E3519F42115310541F1A21713064CF485
:100BF0008D3549F18D3229F4811006C08824839403
:100C00001DC0882009F464C0E92FE695E695E695B5
:100C1000EC0DFD2DF11D892F8770BA0101C0660F03
:100C20008A95EAF78081682B6083791651F09715D1
:100C300010F49F5FE9CF9150E7CFA1E02F5F3F4FC6
:100C4000AFCF812CFBCF882019F08E8180628E83FC
:100C5000AA2359F0F6019E012F5D3F4F80818095B8
:100C600080833196E217F307C9F788248394C5017E
:100C70000E94B50797FD16C0E82FE695E695E69524
:100C8000EC0DFD2DF11D208130E0AC0147705527A2
:100C900002C0359527954A95E2F720FD06C0B501BB
:100CA0000E942108882069F084CFE114F10429F022
:100CB000F7018083C70101967C019A94812C9110E1
:100CC000D6CFE114F10409F476CFF701108273CF87
:100CD000E82FE695E695E695EC0DFD2DF11D982F94
:100CE0009770BA0101C0660F9A95EAF79081692B57
:100CF0006083782EA3CF5F926F927F928F929F92A4
:100D0000AF92BF92CF92DF92EF92FF920F931F9319
:100D1000CF93DF936C01EB015A01FC01178216821D
:100D2000512CF601E380FE01E3FC8591E3FE819105
:100D3000182FEF018823E9F090E00E949B02892B95
:100D400021F0C6010E940005ECCF153241F4FE01EE
:100D5000E3FC1591E3FE1191EF01153269F4C60130
:100D60000E94B50797FD8EC01817D9F2B6010E94F0
:100D70002108852D90E08AC000E01A3231F4E3FCAE
:100D80001591E3FE1191EF0101E0F12C20ED210F0F
:100D90002A3048F101FF37C0FF2059F31836B1F16E
:100DA0001C3609F43DC0112321F3612F70E08CEE55
:100DB00090E00E949407892BE1F2912C812C00FD98
:100DC00006C0F50180809180C50102965C011E3647
:100DD00079F5F6014681578170E060E0202FC4016B
:100DE0000E94D1049ECF02606F2D70E090E080E001
:100DF00040E20E94DD04F62EFE01E3FC1591E3FEC5
:100E00001191EF01C3CFFF24FA94C8CFFE01E3FC98
:100E10001591E3FE1191EF01183609F0C4CF086077
:100E20000460FE01E3FC1591E3FE1191EF01BBCFDD
:100E30001336C1F401FD02C0FF24F394C6010E94E1
:100E4000B50797FD1FC08114910429F0F401808338
:100E5000C40101964C01FA94F110F0CF00FD61CF6E
:100E600053945FCF1B3511F59E01A4016F2DC60170
:100E70000E94A605EC01892B89F7F6018381807316
:100E800009F477CF8FEF9FEF511073CFDF91CF91A0
:100E90001F910F91FF90EF90DF90CF90BF90AF9098
:100EA0009F908F907F906F905F900895C6010E94F1
:100EB000000597FDE7CF1F36A9F130F4143641F055
:100EC000193639F0006405C01337B9F01537D1F77A
:100ED0000062202FA4016F2DC6010E941905811107
:100EE000BDCFCBCF8114910429F0F4016082C401FD
:100EF00001964C01FA94FF2071F0C6010E94B507DB
:100F00003C0197FD08C00E949B02892B59F3B60152
:100F1000C3010E9421088114910409F49FCFF401B8
:100F200010829CCF0061D5CFFC010590061621F000
:100F30000020D9F7C00108953197CF010895FC0131
:100F40000590615070400110D8F7809590958E0FF4
:100F50009F1F0895FC016150704001900110D8F767
:100F6000809590958E0F9F1F0895CF93DF93EC018E
:100F70002B8120FF1AC026FF0CC02F7B2B838E8174
:100F80009F8101969F838E838A8190E0DF91CF912C
:100F9000089522FF18C0E881F9818081082E000C95
:100FA000990B009729F420622B838FEF9FEFEECFF0
:100FB0003196F983E8832E813F812F5F3F4F3F8336
:100FC0002E839927E3CFEA85FB85199597FFF3CF09
:100FD0002B81019621F080E2822B8B83E6CF80E18A
:100FE000FBCF0F931F93CF93DF93182F092FEB01A4
:100FF0008B8181FD09C01FEF0FEF812F902FDF91B3
:10100000CF911F910F91089582FF14C02E813F81CF
:101010008C819D81281739073CF4E881F981CF0143
:1010200001969983888310838E819F8101969F8387
:101030008E83E3CFE885F985812F1995892BA1F35C
:10104000DACFFB01238120FF11C026FD0FC08F3FA7
:10105000980771F082832F7D206423832681378156
:101060002150310937832683992708958FEF9FEF09
:101070000895FA01AA27283051F1203181F1E8942E
:101080006F936E7F6E5F7F4F8F4F9F4FAF4FB1E07B
:101090003ED0B4E03CD0670F781F891F9A1FA11D76
:1010A000680F791F8A1F911DA11D6A0F711D811D77
:1010B000911DA11D20D009F468943F912AE0269F3C
:1010C00011243019305D3193DEF6CF010895462F9B
:1010D0004770405D4193B3E00FD0C9F7F6CF462F7C
:1010E0004F70405D4A3318F0495D31FD40524193E5
:1010F00002D0A9F7EACFB4E0A695979587957795A2
:101100006795BA95C9F700976105710508959B0128
:10111000AC010A2E06945795479537952795BA95B1
:10112000C9F7620F731F841F951FA01D0895F894BF
:02113000FFCFEF
:101132000000000300000000F7002B0100004154F2
:061142000D0A0025640007
:00000001FF
