:100000000C9472000C9486000C9486000C9486006C
:100010000C9486000C9486000C9486000C94860048
:100020000C9486000C9486000C9486000C94860038
:100030000C9486000C9486000C9486000C94860028
:100040000C9486000C9486000C9486000C94860018
:100050000C9486000C9486000C9486000C94860008
:100060000C9486000C9486000C9486000C948600F8
:100070000C9486000C9486000C9486000C948600E8
:100080000C9486000C9486000C9486000C948600D8
:100090000C9486000C9486000C9486000C948600C8
:1000A0000C9486000C9486000C9486000C948600B8
:1000B0000C9486000C9486000C9486000C948600A8
:1000C0000C9486000C9486000C9486000C94860098
:1000D0000C9486000C9486000C9486000C94860088
:1000E0000C94860011241FBECFEFD1E2DEBFCDBF3E
:1000F00000E00CBF22E0A0E0B2E001C01D92A13000
:10010000B207E1F70E94BC000C9416010C940000A9
:1001100080E480937C0087E880937A00089588E0EB
:1001200090E09093C5008093C400E1ECF0E0808102
:1001300088608083E2ECF0E08081866080830895AF
:1001400090917C00907F8F70892B80937C008091B0
:100150007A00806480937A0080917A0086FDFCCFDB
:10016000809178009091790008959091C00095FF5A
:10017000FCCF8093C6000895CF93DF93CDB7DEB751
:100180002A970FB6F894DEBF0FBECDBF0E9488003D
:100190000E948F0080E00E94A0004AE0BE016F5FD5
:1001A0007F4F0E94E100CE01C1960E94B5002FEF63
:1001B00083ED90E3215080409040E1F700C00000C3
:1001C000E9CFBB274A3031F4992322F4BDE2909560
:1001D00081959F4F0C94ED00BB27FB015527AA2763
:1001E000880F991FAA1FA41710F0A41B83955051C4
:1001F000B9F7A05DAA3308F0A95DA193009779F73C
:10020000B111B1931192CB010C940601DC01FC01F8
:10021000672F71917723E1F7329704C07C916D933A
:1002200070836291AE17BF07C8F30895F894FFCFAB
:00000001FF
