:020000040000FA
:100000000C947A000C94AB000C94AB000C94AB00F5
:100010000C94AB000C94AB000C94AB000C94AB00B4
:100020000C94AB000C94AB000C94AB000C94AB00A4
:100030000C94AB000C94AB000C94AB000C94AB0094
:100040000C94AB000C94AB000C94AB000C94AB0084
:100050000C94AB000C94AB000C94AB000C94AB0074
:100060000C94AB000C94AB000C94AB000C94AB0064
:100070000C94AB000C94AB000C94AB000C94AB0054
:100080000C94AB000C94AB000C94AB000C94AB0044
:100090000C94D8010C94AB000C94AB000C94AB0006
:1000A0000C94AB000C94AB000C94AB000C94AB0024
:1000B0000C94AB000C94AB000C94AB000C94AB0014
:1000C0000C94AB000C94AB000C94AB000C94AB0004
:1000D0000C94AB000C94AB000C94AB000C94AB00F4
:1000E0000C94AB000C9412010C9402020C94B30219
:1000F000B302020211241FBECFEFD1E2DEBFCDBF9B
:1001000000E00CBF23E0A4EFB2E001C01D92AF3DC0
:10011000B207E1F712E0A0E0B2E0EEEBF2E100E0BE
:100120000BBF02C007900D92A43FB107D9F710E0B2
:10013000C9E7D0E000E006C021970109802FFE0149
:100140000E943F04C837D10780E00807A9F70E9442
:100150006A030C944D090C940000FC0191919923C1
:1001600039F08091C80085FFFCCF9093CE00F6CF88
:1001700008958F929F92AF92BF92EF92FF920F934A
:100180001F93CF93DF93CDB7DEB7A1970FB6F89447
:10019000DEBF0FBECDBF7C01FA01CB0119A2223018
:1001A00008F42AE08E010F5D1F4F822E912CB12C96
:1001B000A12CBF01A50194010E941D04F901CA01EF
:1001C0006A3074F5605DD8016E938D01232B242B6A
:1001D000252B79F790E080E0109789F0FD010190E0
:1001E0000020E9F73197AF014A1B5B0BD701ED9176
:1001F000FC910280F381E02DB801C7011995A19609
:100200000FB6F894DEBF0FBECDBFDF91CF911F9127
:100210000F91FF90EF90BF90AF909F908F900895B7
:10022000695CD1CF8F929F92AF92BF92CF92DF92B3
:10023000EF92FF920F931F93CF93DF937C01EB011B
:100240006C0182E0C80ED11C4701E5E08E0E911CC6
:1002500010E000E0F60141916F0150E070E060E0D5
:100260002AE0CE010E94B9005C01E881F981019089
:10027000F081E02D6EE2CE0119958A0D9B1D080FCD
:10028000191FC814D90431F7F701458150E070E017
:1002900060E02AE0CE010E94B900800F911FDF913B
:1002A000CF911F910F91FF90EF90DF90CF90BF9073
:1002B000AF909F908F900895EF92FF920F931F93AE
:1002C000CF93DF93CDB7DEB7C253D1400FB6F894CA
:1002D000DEBF0FBECDBF6CE072E0CE0101967C01A7
:1002E0000E945606F70101900020E9F731978F012F
:1002F0000E191F0980E592E00E94AD009FEF2FE4E8
:1003000083EC915020408040E1F700C000001127AD
:100310001F930F938EE792E09F938F938E010F5759
:100320001F4F1F930F930E947706C8010E94AD00D4
:100330009FEF23ED80E3915020408040E1F700C023
:100340000000C7010E94AD009FEF2BE782E99150AA
:1003500020408040E1F700C0000065EF72E0CE0170
:100360008F5F9E4F0E9456061092F40280E992E041
:100370000E94AD009FEF23ED80E39150204080402C
:10038000E1F700C000000F900F900F900F900F90BA
:100390000F9080E0CE5CDE4F0FB6F894DEBF0FBE4C
:1003A000CDBFDF91CF911F910F91FF90EF900895F6
:1003B0001F920F920FB60F9211240BB60F928F93CC
:1003C0009F93EF93FF938091CE00E091F40291E030
:1003D0009E0F9093F402F0E0EB50FD4F8083FF916D
:1003E000EF919F918F910F900BBE0F900FBE0F90CA
:1003F0001F901895FC0180819181009711F00C9459
:10040000E3040895CF93DF9389EC93E00E94FA010F
:1004100083EC93E00E94FA018DEB93E00E94FA01D5
:1004200087EB93E00E94FA0181EB93E00E94FA01CE
:10043000C1EBD3E02697CE010E94FA0183E0C138D8
:10044000D807C1F78BE793E00E94FA0185E793E0B4
:100450000E94FA018FE693E00E94FA0189E693E098
:100460000E94FA01CBE5D3E02697CE010E94FA0163
:1004700083E0CB32D807C1F7DF91CF9108950F9376
:100480001F93CF93DF93EC0188819981009759F0F6
:100490002A813B812617370730F081E0DF91CF9129
:1004A0001F910F9108958B016F5F7F4F0E946C0524
:1004B000009759F0998388831B830A832C813D819F
:1004C000232B59F7FC011082E8CF80E0E7CFCF93D0
:1004D000DF93EC01198218821B821A821D821C8212
:1004E00070E060E00E943F022881398181110FC0D5
:1004F0002115310519F0C9010E94E30419821882FF
:100500001D821C821B821A82DF91CF9108951D8269
:100510001C8265EC72E0C901DF91CF910C94560604
:10052000CF93DF93EC0170E060E00E943F022881EE
:10053000398181110FC02115310519F0C9010E94BF
:10054000E304198218821D821C821B821A82DF91A9
:10055000CF9108951D821C8265EC72E0C901DF9184
:10056000CF910C945606CF93DF938AE092E090935C
:10057000D0038093CF031092D1031092D203109234
:10058000D3031092D403109228031092270380E51E
:1005900090E090932A0380932903D0E0C0E0CE013D
:1005A000855D9C4F0E9467022696C033D105B9F73E
:1005B00089E693E00E9467028FE693E00E9467025B
:1005C00085E793E00E9467028BE793E00E94670251
:1005D000D0E0C0E0CE018F579C4F0E946702269664
:1005E000C033D105B9F781EB93E00E94670287EB36
:1005F00093E00E9467028DEB93E00E94670283EC18
:1006000093E00E94670289EC93E00E9467028BE20C
:1006100093E00E94900281E393E00E94900287E3BE
:1006200093E00E9490028DE393E00E94900283E4A5
:1006300093E00E94900289E493E00E9490028FE48C
:1006400093E00E94900285E593E00E94900280E092
:1006500090E0A0ECBFE780935B0390935C03A093D2
:100660005D03B0935E0380935F0390936003A09358
:100670006103B09362038093630390936403A09338
:100680006503B093660389E693E00E9490028FE6CB
:1006900093E00E94900285E793E00E9490028BE72E
:1006A00093E00E94900288EC90E09093680380931E
:1006B00067038AE092E09093D6038093D50310926B
:1006C000D7031092D8031092D9031092DA03DF9166
:1006D000CF910895CF93DF93CDB7DEB7C257D1093D
:1006E0000FB6F894DEBF0FBECDBF789488E090E0DF
:1006F0009093CD008093CC0088E98093C90086E078
:100700008093CA008FEF87B988B980EA92E09F93FF
:100710008F9389EA92E09F938F9381EB92E09F936E
:100720008F938E010F5F1F4F1F930F930E947706C9
:100730000FB6F894DEBF0FBECDBF86EC92E00E94EC
:10074000AD009FEF23ED80E3915020408040E1F722
:1007500000C0000065EF72E0CE018F5B9F4F0E94EA
:1007600056061092F4026BEC72E0CE018F5B9F4F45
:100770000E945D06892B09F38EEC92E00E94AD0089
:100780009FEF29E688E1915020408040E1F700C0CA
:10079000000065EF72E0CE018F5B9F4F0E9456060E
:1007A0001092F4026BEC72E0CE018F5B9F4F0E94BF
:1007B0005D06892B09F3C8010E94AD009FEF27EA6F
:1007C00081E6915020408040E1F700C0000065EFD5
:1007D00072E0CE018F5B9F4F0E9456061092F4028A
:1007E0006CED72E0CE018F5B9F4F0E945D06892BFE
:1007F00071F086EE92E00E94AD009FEF27EA81E65D
:10080000915020408040E1F700C00000E9CF9FEF09
:100810002BE782E9915020408040E1F700C00000C2
:1008200011E00E945C01813311F418B9FACF0E94E3
:100830005C018033B1F718B8F4CFA1E21A2EAA1BDD
:10084000BB1BFD010DC0AA1FBB1FEE1FFF1FA21780
:10085000B307E407F50720F0A21BB30BE40BF50B7D
:10086000661F771F881F991F1A9469F76095709506
:10087000809590959B01AC01BD01CF010895EE0FCD
:10088000FF1F881F8BBF0790F691E02D19940F93DF
:100890001F93CF93DF938230910510F482E090E0B4
:1008A000E091DD03F091DE0330E020E0B0E0A0E075
:1008B000309799F42115310509F44AC0281B390BEA
:1008C00024303105D8F58A819B816115710589F144
:1008D000FB0193838283FE0111C04081518102811B
:1008E000138148175907E0F04817590799F41097F2
:1008F00061F012960C93129713961C933296CF01C7
:10090000DF91CF911F910F9108950093DD03109314
:10091000DE03F4CF2115310551F04217530738F0AB
:10092000A901DB019A01BD01DF01F801C1CFEF018F
:10093000F9CF9093DE038093DD03CDCFFE01E20F6C
:10094000F31F819391932250310939832883D7CFA4
:100950002091DB033091DC03232B41F42091020230
:10096000309103023093DC032093DB0320910002DB
:10097000309101022115310541F42DB73EB7409168
:10098000040250910502241B350BE091DB03F0912A
:10099000DC03E217F307A0F42E1B3F0B28173907DF
:1009A00078F0AC014E5F5F4F2417350748F04E0FCB
:1009B0005F1F5093DC034093DB03819391939FCFA0
:1009C000F0E0E0E09CCFCF93DF930097E9F0FC01EB
:1009D000329713821282A091DD03B091DE03ED0104
:1009E00030E020E01097A1F420813181820F931F25
:1009F0002091DB033091DC032817390709F061C02F
:100A0000F093DC03E093DB03DF91CF910895EA01DB
:100A1000CE17DF07E8F54A815B819E01411551053C
:100A2000B1F7E901FB83EA8349915991C40FD51FBE
:100A3000EC17FD0761F4808191810296840F951F68
:100A4000E90199838883828193819B838A83F0E083
:100A5000E0E012968D919C9113970097B9F52D9136
:100A60003C911197CD010296820F931F2091DB03D9
:100A70003091DC032817390739F6309751F5109279
:100A8000DE031092DD03B093DC03A093DB03BCCF45
:100A9000D383C28340815181840F951FC817D90722
:100AA00061F44E5F5F4F88819981480F591F5183D0
:100AB00040838A819B81938382832115310509F0CC
:100AC000B0CFF093DE03E093DD039ECFFD01DC01A8
:100AD000C0CF13821282D7CF4F925F926F927F92D4
:100AE0008F929F92AF92BF92CF92DF92EF92FF923E
:100AF0000F931F93CF93DF938C01009799F4CB0151
:100B0000DF91CF911F910F91FF90EF90DF90CF90E9
:100B1000BF90AF909F908F907F906F905F904F901D
:100B20000C944704FC01E60FF71F9C012250310989
:100B3000E217F30708F4AEC0D901CD91DC9111970B
:100B4000C617D70720F1C530D10578F0CE0104973C
:100B50008617970750F0C61BD70B2297C193D193E6
:100B60006D937C93CF010E94E304C801DF91CF9184
:100B70001F910F91FF90EF90DF90CF90BF90AF90BB
:100B80009F908F907F906F905F904F9008955B0142
:100B9000AC1ABD0A4C018C0E9D1EA091DD03B091D4
:100BA000DE03512C412CF12CE12C109731F5809172
:100BB000DB039091DC038815990509F05CC04616AB
:100BC000570608F058C080910002909101020097EA
:100BD00041F48DB79EB74091040250910502841BE9
:100BE000950BE817F90708F055C0F093DC03E09384
:100BF000DB03F90171836083B8CF8D919C911197CC
:100C000012966C90129713967C901397A815B905BD
:100C100059F56C0142E0C40ED11CCA14DB0420F16A
:100C2000AC014A195B09DA011296159780F06282CD
:100C3000738251834083D9016D937C93E114F10455
:100C400071F0D7011396FC93EE9312978ECF2296F4
:100C50008C0F9D1FF90191838083F301EFCFF093F7
:100C6000DE03E093DD0381CF4816590608F42C011A
:100C70007D01D3019ACFCB010E9447047C010097EC
:100C800049F0AE01B8010E944D06C8010E94E3047C
:100C900087016BCF10E000E068CFFB01DC0102C0F0
:100CA00001900D9241505040D8F70895FB01DC01AE
:100CB00001900D920020E1F70895FB015191552319
:100CC000A9F0BF01DC014D9145174111E1F759F43D
:100CD000CD010190002049F04D9140154111C9F31B
:100CE000FB014111EFCF81E090E0019708950F9350
:100CF0001F93CF93DF93CDB7DEB72E970FB6F8943F
:100D0000DEBF0FBECDBF0E891F8986E08C831A839C
:100D100009838FEF9FE79E838D83AE01465E5F4F11
:100D2000688D798DCE0101960E94A7062F813885A6
:100D3000020F131FF80110822E960FB6F894DEBF33
:100D40000FBECDBFDF91CF911F910F9108952F92CC
:100D50003F924F925F926F927F928F929F92AF924B
:100D6000BF92CF92DF92EF92FF920F931F93CF9398
:100D7000DF9300D000D000D01F921F92CDB7DEB716
:100D80007C013B018A01FC0117821682838181FF6D
:100D9000DDC1CE0101965C01F7019381F30193FD62
:100DA000859193FF81913F01882309F453C18532D6
:100DB00039F493FD859193FF81913F01853229F4A8
:100DC000B70190E00E94BF08E7CF912C212C312C75
:100DD000FFE1F31538F08B3211F190F4803209F114
:100DE000833229F137FC3CC020ED280F2A3050F522
:100DF00036FE20C08AE0989E200D1124922E06C057
:100E00008D3291F0803371F7689430F8F30193FDDF
:100E1000859193FF81913F018111DACF21C06894C0
:100E200031F8689432F8F2CF689433F8EFCF6894D1
:100E300034F8ECCFEAE02E9E200D1124222E689487
:100E400035F8E4CF8E3229F436FC04C1689436F8C4
:100E5000DDCF8C3619F4689437F8D8CF8836B1F2E4
:100E6000982F9F7D95549330E0F08336A1F183371E
:100E7000C1F1833509F063C02801F2E04F0E511C27
:100E8000F801C080D180692D70E036FC02C06FEFA0
:100E90007FEFC6010E94A9084C01689437F88201CF
:100EA0000AC00C5F1F4FFFE3F98388248394912CC1
:100EB0006501E89437F833FE2DC0522C811491045B
:100EC00071F5552009F468CFB70180E290E00E94E7
:100ED000BF085A94F6CFF801808189830E5F1F4FB7
:100EE000E4CF2801F2E04F0E511CF801C080D18000
:100EF000692D70E036FC02C06FEF7FEFC6010E94E3
:100F0000B4084C018201D5CFB70180E290E00E9485
:100F1000BF082A942814190409F0B0F7CECFF601BF
:100F200037FC859137FE81916F01B70190E00E94F7
:100F3000BF0851105A94F1E08F1A9108BFCF843640
:100F400019F0893609F077C0F80137FE6BC060816F
:100F50007181828193810C5F1F4FF32DFF763F2EAD
:100F600097FF09C090958095709561957F4F8F4F41
:100F70009F4F689437F82AE030E0A5010E94EF08FF
:100F8000C82ECA188C2C432C36FE0CC0E89440F8AE
:100F9000C91440F434FE05C032FC03C0F32DFE7EBC
:100FA0004F2E892C44FEAAC0FE01EC0DF11D80815C
:100FB000803309F09CC0242D297E422E842D887018
:100FC000582E43FCAAC040FEA4C09C2C821418F4E6
:100FD0002C0C922C981844FEA6C0B70180E390E038
:100FE0000E94BF0842FE09C088E790E041FE02C0AF
:100FF00088E590E0B7010E94BF08C91408F49FC0BB
:10100000CA94D12C9FEFC91AD90ACA0CDB1CF6016D
:1010100082916F01B70190E00E94BF08AC14BD043B
:10102000B1F74FCF60817181072E000C880B990BAF
:101030000E5F1F4F92CFD32CE894D4F82AE030E013
:101040008537E1F1232D297FD22E8F36A9F1F0F4D7
:10105000883551F1F701868197812B960FB6F89468
:10106000DEBF0FBECDBFDF91CF911F910F91FF90DB
:10107000EF90DF90CF90BF90AF909F908F907F9038
:101080006F905F904F903F902F900895803749F078
:10109000883701F7D4FE02C06894D2F820E130E02E
:1010A0000DC06894D4F8F6CF34FE03C0822F86605A
:1010B000D82E20E132E002C028E030E0F801D7FE6F
:1010C0000FC060817181828193810C5F1F4FA501E8
:1010D0000E94EF08C82ECA183D2CE89437F852CF6A
:1010E0006081718190E080E00E5F1F4FF0CF42FC85
:1010F00002C0839463CF8394839460CF842D8678D9
:1011000009F45CCFF6CFB70180E290E00E94BF08FF
:1011100083948214C0F3512C5ECF522C5818821441
:1011200008F459CFF8CF842D867809F466CF8BE286
:1011300041FE80E247FC8DE2B70190E05CCFB70151
:1011400080E390E00E94BF089A9457CF8FEF9FEF03
:1011500084CFFC010590615070400110D8F7809554
:1011600090958E0F9F1F0895FC0161507040019073
:101170000110D8F7809590958E0F9F1F08950F93BB
:101180001F93CF93DF93182F092FEB018B8181FDE4
:1011900009C01FEF0FEF812F902FDF91CF911F918B
:1011A0000F91089582FF14C02E813F818C819D8113
:1011B000281739073CF4E881F981CF01019699831A
:1011C000888310838E819F8101969F838E83E3CFD6
:1011D000E885F985812F1995892BA1F3DACFFA01DA
:1011E000AA27283051F1203181F1E8946F936E7F66
:1011F0006E5F7F4F8F4F9F4FAF4FB1E03ED0B4E057
:101200003CD0670F781F891F9A1FA11D680F791F97
:101210008A1F911DA11D6A0F711D811D911DA11DA8
:1012200020D009F468943F912AE0269F11243019B8
:10123000305D3193DEF6CF010895462F4770405D53
:101240004193B3E00FD0C9F7F6CF462F4F70405D02
:101250004A3318F0495D31FD4052419302D0A9F75D
:10126000EACFB4E0A6959795879577956795BA9557
:10127000C9F700976105710508959B01AC010A2E1D
:1012800006945795479537952795BA95C9F7620FF4
:10129000731F841F951FA01D089510E0C9E7D0E0BB
:1012A00000E006C0802FFE010E943F042196011D30
:1012B000CA37D10780E00807A9F7F894FFCF0000EC
:1012C000DF038000000000001201474554206874CD
:1012D0007470733A2F2F6170692E7468696E67732A
:1012E0007065616B2E636F6D2F6368616E6E656CE8
:1012F000732F323035333936362F6669656C647337
:101300002F342F6C6173742E7478740D0A0041545D
:101310002B43495053544152543D342C2254435092
:10132000222C226170692E7468696E677370656122
:101330006B2E636F6D222C38300D0A0041542B4305
:10134000495053454E443D342C25640D0A00415408
:101350002B434950434C4F53453D350D0A006361C3
:101360006268696E617600506978656C2D35004160
:10137000542B43574A41503D222573222C2225737A
:10138000220D0A0041540D0A004F4B0041542B43DB
:10139000574D4F44453D310D0A00434F4E4E454396
:1013A0005445440041542B4349504D55583D310D4F
:0213B0000A0031
:020000040003F7
:10E000000D9489F10D94B2F10D94B2F10D94B2F129
:10E010000D94B2F10D94B2F10D94B2F10D94B2F1F0
:10E020000D94B2F10D94B2F10D94B2F10D94B2F1E0
:10E030000D94B2F10D94B2F10D94B2F10D94B2F1D0
:10E040000D94B2F10D94B2F10D94B2F10D94B2F1C0
:10E050000D94B2F10D94B2F10D94B2F10D94B2F1B0
:10E060000D94B2F10D94B2F10D94B2F10D94B2F1A0
:10E070000D94B2F10D94B2F10D94B2F10D94B2F190
:10E080000D94B2F10D94B2F10D94B2F10D94B2F180
:10E090000D94B2F10D94B2F10D94B2F10D94B2F170
:10E0A0000D94B2F10D94B2F10D94B2F10D94B2F160
:10E0B0000D94B2F10D94B2F10D94B2F10D94B2F150
:10E0C0000D94B2F10D94B2F10D94B2F10D94B2F140
:10E0D0000D94B2F10D94B2F10D94B2F10D94B2F130
:10E0E0000D94B2F141546D656761323536300041AF
:10E0F000726475696E6F206578706C6F72657220DE
:10E1000073746B3530305632206279204D4C530099
:10E11000426F6F746C6F616465723E004875683F52
:10E1200000436F6D70696C6564206F6E203D200048
:10E130004350552054797065202020203D20005FF9
:10E140005F4156525F415243485F5F3D2000415658
:10E1500052204C696243205665723D20004743437C
:10E160002056657273696F6E203D20004350552024
:10E1700049442020202020203D20004C6F7720663D
:10E18000757365202020203D20004869676820665F
:10E190007573652020203D200045787420667573D6
:10E1A00065202020203D20004C6F636B2066757336
:10E1B000652020203D20004D617220203720323024
:10E1C000313300312E362E3800342E332E350056A2
:10E1D00023202020414444522020206F7020636F70
:10E1E00064652020202020696E73747275637469E1
:10E1F0006F6E2061646472202020496E74657272B3
:10E20000757074006E6F20766563746F7200726A49
:10E210006D702020006A6D70200057686174207056
:10E220006F72743A00506F7274206E6F7420737541
:10E2300070706F72746564004D7573742062652030
:10E2400061206C6574746572002000577269747483
:10E25000696E672045450052656164696E672045B7
:10E26000450045452065727220636E743D00504F35
:10E27000525400303D5A65726F2061646472003FF1
:10E280003D43505520737461747300403D454550C3
:10E29000524F4D207465737400423D426C696E6B41
:10E2A000204C454400453D44756D70204545505215
:10E2B0004F4D00463D44756D7020464C415348001B
:10E2C000483D48656C70004C3D4C69737420492F83
:10E2D0004F20506F72747300513D51756974005234
:10E2E0003D44756D702052414D00563D73686F7707
:10E2F00020696E7465727275707420566563746FF0
:10E30000727300593D506F727420626C696E6B00BD
:10E310002A0011241FBECFEFD1E2DEBFCDBF01E046
:10E320000CBF12E0A0E0B2E0EEE1FDEF03E00BBFB6
:10E3300002C007900D92A030B107D9F712E0A0E01B
:10E34000B2E001C01D92AE30B107E1F70F9460F367
:10E350000D948DFE01E20EBF0FEF0DBF11241FBE05
:10E360000D9460F30D9400F020E030E040ED57E0B4
:10E3700005C0FA013197F1F72F5F3F4F2817390792
:10E38000C0F308959C01260F311DC901A0E0B0E043
:10E390002F5F3F4FABBFFC018791882361F08093D3
:10E3A000C6008091C00086FFFCCF8091C0008064D1
:10E3B0008093C000EACF08958DE08093C6008091DD
:10E3C000C00086FFFCCF8091C00080648093C000B5
:10E3D0008AE08093C6008091C00086FFFCCF8091C8
:10E3E000C00080648093C00008950F94C2F10F9420
:10E3F000DCF10895FC019081992359F09093C600B7
:10E400008091C00086FFFCCF8091C0008064809323
:10E41000C0003196992379F70895282F982F929567
:10E420009F70892F805D8A3308F0895F8093C600D2
:10E430008091C00086FFFCCF8091C00080648093F3
:10E44000C000822F8F70982F905D9A3308F0995FEB
:10E450009093C6008091C00086FFFCCF8091C000E1
:10E4600080648093C00008959C01FB01853691056E
:10E470001CF46330710594F0C90164E670E00F94F8
:10E480002EFE605D7F4F6093C6008091C00086FFC6
:10E49000FCCF8091C00080648093C0002B30310598
:10E4A00014F43297B4F0C90164E670E00F942EFEC4
:10E4B0006AE070E00F942EFE605D7F4F6093C600AF
:10E4C0008091C00086FFFCCF8091C0008064809363
:10E4D000C000C9016AE070E00F942EFEC0968093E0
:10E4E000C6008091C00086FFFCCF8091C000806490
:10E4F0008093C00008951F93182F8EE692EE60E07F
:10E500000F94C2F11093C6008091C00086FFFCCF2B
:10E510008091C00080648093C0000F94DCF11F9153
:10E5200008952F923F924F925F926F927F928F92B7
:10E530009F92AF92BF92CF92DF92EF92FF920F9392
:10E540001F93DF93CF93CDB7DEB762970FB6F894E2
:10E55000DEBF0FBECDBF382E622ECA01DB015C01CB
:10E560006D01772420E2222E2E010894411C511CBB
:10E570008BC081E0A81680E0B80681E0C80680E084
:10E58000D80628F0C601AA27BB270F940DF2BB2797
:10E59000AD2D9C2D8B2D0F940DF28A2D0F940DF225
:10E5A0002092C6008091C00086FFFCCF8091C00001
:10E5B00080648093C0009DE29093C6008091C0006B
:10E5C00086FFFCCF8091C00080648093C0002092C1
:10E5D000C6008091C00086FFFCCF8091C00080649F
:10E5E0008093C00019828601750188249924A1E0D6
:10E5F0003A1651F03A1620F0B2E03B1661F409C029
:10E600000BBFF701779007C0C7010F9477FE782EF4
:10E6100002C0F7017080872D0F940DF22092C60082
:10E620008091C00086FFFCCF8091C0008064809301
:10E63000C000872D8052F401EF70F0708F3520F408
:10E64000E40DF51D708204C0E40DF51D8EE280839B
:10E650000894E11CF11C011D111D0894811C911CE2
:10E6600090E18916910409F0C2CF80E190E0A0E02A
:10E67000B0E0A80EB91ECA1EDB1E198AC2010F9493
:10E68000FAF10F94DCF16A94662009F072CF629679
:10E690000FB6F894DEBF0FBECDBFCF91DF911F91B3
:10E6A0000F91FF90EF90DF90CF90BF90AF909F9031
:10E6B0008F907F906F905F904F903F902F90089534
:10E6C0002F923F924F925F926F927F928F929F9282
:10E6D000AF92BF92CF92DF92EF92FF920F931F9370
:10E6E000DF93CF93CDB7DEB7CD53D1400FB6F894BB
:10E6F000DEBF0FBECDBF01E20EBF0FEF0DBF94B75F
:10E70000F894A89514BE80916000886180936000A1
:10E7100010926000789493FF05C0E0910002F091A0
:10E7200001021995279A2F9A8091C00082608093E8
:10E73000C00080E18093C40088E18093C1000000A4
:10E74000EE24FF24870144E0A42EB12CCC24DD2448
:10E7500024C0C5010197F1F70894E11CF11C011DCB
:10E76000111D21E2E2162EE4F20620E0020720E06D
:10E77000120718F031E0C32ED12CC801B70127ECE5
:10E780003BE140E050E00F9441FE611571058105C9
:10E79000910519F485B1805885B98091C00087FD35
:10E7A00003C0C114D104A9F2A6014F5F5F4FC25E3E
:10E7B000DE4F59834883CE51D140C25EDE4F8881FF
:10E7C0009981CE51D140019711F00D9410FEC05D9A
:10E7D000DE4F19821882C053D14060E0C15DDE4F28
:10E7E0001882CF52D14088249924C35DDE4F19820C
:10E7F0001882CD52D140C05EDE4F188219821A8233
:10E800001B82C052D140CE5CDE4F188219821A8220
:10E810001B82C253D140EE24FF2487010BBFF701B6
:10E8200007911691C45CDE4F19830883CC53D14005
:10E830000D940BFEC25EDE4F28813981CE51D1404E
:10E840002130310509F52091C600C25EDE4F1982E4
:10E850001882CE51D14022C02F5F3F4F4F4F5F4FA4
:10E86000213082E138078AE7480780E0580780F0C6
:10E87000C45CDE4FE881F981CC53D140EF5FFF4F9C
:10E8800019F0EE27FF27099420E030E040E050E047
:10E890008091C00087FFE0CF2091C600C35DDE4FAE
:10E8A00048815981CD52D1404F5F5F4FC35DDE4FEC
:10E8B00059834883CD52D140213209F063C64A3092
:10E8C000510508F05FC60894811C911C53E0851621
:10E8D000910409F059C600E010E018C081E280936D
:10E8E000C6008091C00086FFFCCF8091C00080648C
:10E8F0008093C0002F5F3F4F2931310579F70F9486
:10E90000DCF10F5F1F4F0530110519F020E030E0FA
:10E91000E5CF10920A0210920B0210920C02109294
:10E920000D02109206021092070210920802109235
:10E930000902109202021092030210920402109235
:10E9400005028FEE90EE60E00F94F5F180E191EE1C
:10E9500060E00F94C2F18091C00087FFFCCF9091DE
:10E96000C600903608F09F759032B8F09093C600BC
:10E970008091C00086FFFCCF8091C00080648093AE
:10E98000C000A0E2A093C6008091C00086FFFCCF2B
:10E990008091C00080648093C000983409F4D7C18E
:10E9A0009934B8F4923409F459C1933458F490333B
:10E9B00019F1903308F4E3C59F33A1F1903409F0C5
:10E9C000DEC5BDC0953409F470C1963409F0D7C5D1
:10E9D00098C1923509F42BC2933538F49C3409F46C
:10E9E000F5C1913509F0CBC518C2963509F445C279
:10E9F000993509F0C4C567C483E792EE62E00F94CD
:10EA0000F5F110920602109207021092080210927D
:10EA1000090210920A0210920B0210920C0210923C
:10EA20000D0213C18FE792EE62E00F94F5F18FEEC5
:10EA300090EE60E00F94F5F181E291EE60E00F94CA
:10EA4000C2F187EB91EE60E00F94F5F180E391EE77
:10EA500060E00F94C2F184EE90EE60E00F94F5F167
:10EA60008FE391EE60E00F94C2F186E090E061E008
:10EA700070E00F9434F20F94DCF18DE591EE60E0DC
:10EA80000F94C2F189EC91EE60E00F94F5F18EE401
:10EA900091EE60E00F94C2F183EC91EE60E00F9490
:10EAA000F5F18CE691EE60E00F94C2F18EE10F94E7
:10EAB0000DF288E90F940DF281E00F940DF20F949E
:10EAC000DCF18BE791EE60E00F94C2F119E0E0E039
:10EAD000F0E010935700E4918E2F0F940DF20F94F5
:10EAE000DCF18AE891EE60E00F94C2F1E3E0F0E03F
:10EAF00010935700E4918E2F0F940DF20F94DCF1D8
:10EB000089E991EE60E00F94C2F1E2E0F0E0109349
:10EB10005700E4918E2F0F940DF20F94DCF188EAE8
:10EB200091EE60E00F94C2F1E1E0F0E01093570045
:10EB30001491812F0F940DF20F94DCF107CF8BE825
:10EB400092EE62E00F94F5F18BE492EE60E00F94A8
:10EB5000F5F10F94DCF100E010E019C0C8016F2D51
:10EB60000F947FFEFF2031F489E492EE60E00F9471
:10EB7000C2F10BC0F092C6008091C00086FFFCCFAE
:10EB80008091C00080648093C0000F5F1F4FC80158
:10EB900081519F41A0E0B0E0ABBFFC01F790BAE229
:10EBA000FB1621F0E2E000301E07C1F60F94DCF105
:10EBB0000F94DCF187E592EE60E00F94F5F10F948D
:10EBC000DCF1CC24DD2400E010E01EC0C8010F946D
:10EBD00077FEF82E882331F489E492EE60E00F94FA
:10EBE000C2F10BC08093C6008091C00086FFFCCFAD
:10EBF0008091C00080648093C000FE1419F00894D6
:10EC0000C11CD11C0F5F1F4FC80181519F41A0E063
:10EC1000B0E0ABBFFC01E790FAE2EF1621F022E092
:10EC20000030120799F60F94DCF10F94DCF182E6C4
:10EC300092EE60E00F94C2F1C60161E070E00F94C3
:10EC400034F20F94DCF10F94DCF110920202109276
:10EC50000302109204021092050278CE89E992EE26
:10EC600062E00F94F5F1279A2F9A16C02F9880E052
:10EC700090E0E0EDF7E03197F1F7019684369105E9
:10EC8000C1F72F9A80E090E0E0EDF7E03197F1F7DF
:10EC9000019684369105C1F78091C00087FFE6CFC9
:10ECA0008091C00087FFFCCF64C485EA92EE62E0E9
:10ECB0000F94F5F140910202509103026091040219
:10ECC0007091050281E020E10F9491F2809102029F
:10ECD00090910302A0910402B091050280509F4FD1
:10ECE000AF4FBF4F8093020290930302A0930402A0
:10ECF000B093050280509041A040B04008F426CE69
:10ED0000A4CF83EB92EE62E00F94F5F140910602FE
:10ED100050910702609108027091090280E020E1A1
:10ED20000F9491F28091060290910702A09108023F
:10ED3000B091090280509F4FAF4FBF4F80930602A2
:10ED400090930702A0930802B0930902FFCD80ECD4
:10ED500092EE62E00F94F5F183E792EE60E00F949B
:10ED6000F5F18FE792EE60E00F94F5F18BE892EE0B
:10ED700060E00F94F5F189E992EE60E00F94F5F10F
:10ED800085EA92EE60E00F94F5F183EB92EE60E09D
:10ED90000F94F5F180EC92EE60E00F94F5F187ECC2
:10EDA00092EE60E00F94F5F188ED92EE60E00F9442
:10EDB000F5F18FED92EE60E00F94F5F18AEE92EEB0
:10EDC00060E00F94F5F183E093EEBDCD87EC92EE19
:10EDD00062E00F94F5F181E40F947BF282E40F94EA
:10EDE0007BF283E40F947BF284E40F947BF285E45E
:10EDF0000F947BF286E40F947BF287E40F947BF20E
:10EE000088E40F947BF28AE40F947BF28BE40F94F6
:10EE10007BF28CE40F947BF299CD88ED92EE62E068
:10EE20000F94F5F1772473948824992409C48FED05
:10EE300092EE62E00F94F5F140910A0250910B02BC
:10EE400060910C0270910D0282E020E10F9491F22A
:10EE500080910A0290910B02A0910C02B0910D02D8
:10EE600080509F4FAF4FBF4F80930A0290930B0289
:10EE7000A0930C02B0930D0269CD8AEE92EE62E08F
:10EE80000F94F5F184EE90EE60E00F94F5F18FECC5
:10EE900091EE60E00F94F5F1662477244301CC5D98
:10EEA000DE4F19821882C452D140D401C301B695F5
:10EEB000A79597958795CA5DDE4F88839983AA8326
:10EEC000BB83C652D140CC5DDE4FA881B981C4520C
:10EED000D1401196CC5DDE4FB983A883C452D14096
:10EEE000CD0162E070E00F9434F2B0E2B093C6005E
:10EEF0008091C00086FFFCCF8091C0008064809329
:10EF0000C000EDE2E093C6008091C00086FFFCCF18
:10EF10008091C00080648093C000F0E2F093C6004E
:10EF20008091C00086FFFCCF8091C00080648093F8
:10EF3000C000CA5DDE4FE880F9800A811B81C6529D
:10EF4000D140BB27A12F902F8F2D0F940DF2CA5DBA
:10EF5000DE4F8881C652D1400F940DF2B0E2FB2EF5
:10EF6000F092C6008091C00086FFFCCF8091C00067
:10EF700080648093C0000DE30093C6008091C000C0
:10EF800086FFFCCF8091C00080648093C00010E2B7
:10EF90001093C6008091C00086FFFCCF8091C00016
:10EFA00080648093C0008BBEF3012791C65DDE4F65
:10EFB0002883CA52D140A22EBB24CC24DD2408943D
:10EFC000611C711C811C911C8BBEF3018791282E42
:10EFD0003324442455240894611C711C811C911C09
:10EFE0008BBEF3013791C55DDE4F3883CB52D140E4
:10EFF0000894611C711C811C911C8BBEF30147910C
:10F00000C45DDE4F4883CC52D140ADEFEA2EAFEF66
:10F01000FA2EAFEF0A2FAFEF1A2F6E0C7F1C801E57
:10F02000911E142D032DF22CEE24EA0CFB1C0C1D5A
:10F030001D1D0F940DF220E22093C6008091C000A8
:10F0400086FFFCCF8091C00080648093C000C65DC5
:10F05000DE4F8881CA52D1400F940DF230E23093D6
:10F06000C6008091C00086FFFCCF8091C000806404
:10F070008093C000C45DDE4F8881CC52D1400F9494
:10F080000DF240E24093C6008091C00086FFFCCFA5
:10F090008091C00080648093C000C55DDE4F888190
:10F0A000CB52D1400F940DF250E25093C6008091A4
:10F0B000C00086FFFCCF8091C00080648093C000B8
:10F0C0008FEFE8168FEFF80680E0080780E018075A
:10F0D00031F484E092EE60E00F94C2F1DFC0D80119
:10F0E000C7018070907CA070B0708050904CA040A0
:10F0F000B040D1F52FEF3FE340E050E0E222F322B1
:10F1000004231523CA5DDE4FA880B980CA80DB8046
:10F11000C652D140AE0CBF1CC01ED11EAA0CBB1CD7
:10F12000CC1CDD1C8EE092EE60E00F94C2F1BB2798
:10F13000A12F902F8F2D0F940DF28E2D0F940DF285
:10F1400030E23093C6008091C00086FFFCCF8091F2
:10F15000C00080648093C0004EE34093C60080915D
:10F16000C00086FFFCCF87C08EE09EEFA0E0B0E03D
:10F17000E822F9220A231B239CE0E91694E9F90608
:10F1800090E0090790E0190709F088C0C45DDE4FE0
:10F19000A881CC52D140EA2EFF2400E010E0102FCD
:10F1A0000F2DFE2CEE24C55DDE4FB881CB52D14031
:10F1B000EB0EF11C011D111DD601C501817090706F
:10F1C000A070B070DC0199278827E80EF91E0A1F8D
:10F1D0001B1F20EF30E040E050E0A222B322C42207
:10F1E000D52241E1AA0CBB1CCC1CDD1C4A95D1F7F1
:10F1F000EA0CFB1C0C1D1D1D81E090E0A0E0B0E0BE
:10F20000282239224A225B2235E1220C331C441C7D
:10F21000551C3A95D1F7E20CF31C041D151D57013E
:10F220006801AA0CBB1CCC1CDD1C85E192EE60E0E1
:10F230000F94C2F1C801AA27BB270F940DF2BB2778
:10F24000A12F902F8F2D0F940DF28E2D0F940DF274
:10F2500090E29093C6008091C00086FFFCCF809121
:10F26000C00080648093C000AEE3A093C60080918C
:10F27000C00086FFFCCF8091C00080648093C000F6
:10F28000C601AA27BB270F940DF2BB27AD2D9C2DDD
:10F290008B2D0F940DF28A2D0F940DF20F94DCF14B
:10F2A000CC5DDE4FE881F981C452D140F99709F471
:10F2B0004DCBF4E0EF2EF12C012D112D6E0C7F1CA7
:10F2C000801E911EF2CD83E093EE62E00F94F5F183
:10F2D0008AE192EE60E00F94C2F18091C00087FF56
:10F2E000FCCF1091C6001F751093C6008091C0001E
:10F2F00086FFFCCF8091C00080648093C0000F9493
:10F30000DCF1812F81548A3108F036C1163409F4BA
:10F3100095C0173490F4133409F44EC0143430F40B
:10F320001134F1F0123409F01DC130C0143409F465
:10F3300059C0153409F016C16BC01A3409F4C4C0A1
:10F340001B3438F4173409F48FC0183409F00AC19B
:10F35000A1C01B3409F4D2C01C3409F003C1E8C0B9
:10F360008FEF81B90DC082B1809582B980E090E0C5
:10F37000E0EDF7E03197F1F70196883C9105C1F790
:10F380008091C00087FFEFCF12B8EFC08FEF84B934
:10F390000DC085B1809585B980E090E0E0EDF7E0A3
:10F3A0003197F1F70196883C9105C1F78091C00033
:10F3B00087FFEFCF15B8D9C08FEF87B90DC088B1DF
:10F3C000809588B980E090E0E0EDF7E03197F1F7C3
:10F3D0000196883C9105C1F78091C00087FFEFCF6F
:10F3E00018B8C3C08FEF8AB90DC08BB180958BB9A7
:10F3F00080E090E0E0EDF7E03197F1F70196883C8E
:10F400009105C1F78091C00087FFEFCF1BB8ADC059
:10F410008FEF8DB90DC08EB180958EB980E090E0F0
:10F42000E0EDF7E03197F1F70196883C9105C1F7DF
:10F430008091C00087FFEFCF1EB897C08FEF80BBD1
:10F440000DC081B3809581BB80E090E0E0EDF7E0F6
:10F450003197F1F70196883C9105C1F78091C00082
:10F4600087FFEFCF11BA81C08FEF83BB0DC084B38C
:10F47000809584BB80E090E0E0EDF7E03197F1F714
:10F480000196883C9105C1F78091C00087FFEFCFBE
:10F4900014BA6BC08FEF809301010FC080910201FD
:10F4A00080958093020180E090E0E0EDF7E03197F5
:10F4B000F1F70196883C9105C1F78091C00087FF64
:10F4C000EDCF1092020151C08FEF809304010FC065
:10F4D0008091050180958093050180E090E0E0ED4A
:10F4E000F7E03197F1F70196883C9105C1F78091DB
:10F4F000C00087FFEDCF1092050137C08FEF8093DA
:10F5000007010FC08091080180958093080180E079
:10F5100090E0E0EDF7E03197F1F70196883C910536
:10F52000C1F78091C00087FFEDCF109208011DC088
:10F530008FEF80930A010FC080910B01809580931B
:10F540000B0180E090E0E0EDF7E03197F1F70196F4
:10F55000883C9105C1F78091C00087FFEDCF1092E4
:10F560000B0103C085E292EEEEC98091C00087FFD7
:10F57000FCCF8091C600EAC988E392EEE4C98CE131
:10F5800091EEE1C988249924933011F1943028F444
:10F59000913089F09230B8F408C0953061F195301F
:10F5A000F0F0963009F048C043C02B3109F042C951
:10F5B00091E06BE13FC96227C15DDE4F2883CF52E6
:10F5C000D14092E037C9B22FA0E0622793E032C960
:10F5D000822F90E0A82BB92B622794E02BC92E3004
:10F5E00009F039C3622795E0C05DDE4F19821882A9
:10F5F000C053D1401FC9E1E0F0E0EC0FFD1FC05D3A
:10F60000DE4F08811981C053D140E00FF11F2083E4
:10F610000F5F1F4FC05DDE4F19830883C053D14079
:10F6200062270A171B0709F005C9D80196E002C92D
:10F63000261709F010C303C0973009F0FBC87724E0
:10F640009981933109F412C19431C8F4963009F4C8
:10F65000D8C0973050F4923009F406C1933009F4C1
:10F660006DC0913009F059C253C0913109F477C08F
:10F67000923108F0BBC0903109F04FC2F5C098310B
:10F6800009F487C0993150F4953109F4EFC09531F0
:10F6900008F4C6C1963109F040C2C2C19A3109F4DA
:10F6A0006CC09A3108F491C09B3109F45BC09D3164
:10F6B00009F033C29D81903359F48F81882311F46E
:10F6C0009EE11CC0813011F091E018C098E916C08D
:10F6D000892F807591F0903539F4E0E0F0E089E011
:10F6E0008093570094910AC0983539F4E3E0F0E034
:10F6F00089E080935700949101C090E01A821B82A8
:10F700008D818C831D829E831F8227E030E009C299
:10F710001A8288E08B8381E48C8386E58D8382E581
:10F720008E8389E48F8383E5888780E589878FE5E9
:10F730008A8782E38B872BE030E0F3C18A818139AD
:10F7400041F0823941F0803911F48FE005C080E04A
:10F7500003C082E001C08AE01A828B8344C0772410
:10F76000739482C08D81882311F48EE12CC0813086
:10F7700011F081E028C088E926C01A82E1E0F0E0BB
:10F7800089E08093570084918B831C8224E030E0D1
:10F79000C8C18B81803589F48C81883039F4E2E0EE
:10F7A000F0E089E08093570084910DC0E0E0F0E044
:10F7B00089E080935700849106C0E3E0F0E089E09F
:10F7C0008093570084911A82DFCF8D81836C99E0FA
:10F7D000E1E0F0E0082E90935700E89507B600FCB2
:10F7E000FDCF1A821B8223E030E09BC180EC8A832C
:10F7F000CE5CDE4F188219821A821B82C253D1401E
:10F800008EC18A8190E0A0E0B0E0582F44273327D2
:10F8100022278B8190E0A0E0B0E0DC0199278827C7
:10F82000282B392B4A2B5B2B8D8190E0A0E0B0E098
:10F83000282B392B4A2B5B2B8C8190E0A0E0B0E089
:10F84000BA2FA92F982F8827282B392B4A2B5B2BCF
:10F85000220F331F441F551FC05EDE4F288339839C
:10F860004A835B83C052D1401A8259C13A81C95C34
:10F87000DE4F3883C753D140CA5CDE4F1882C6536F
:10F88000D1408B81C82EDD24CA5CDE4F488159816E
:10F89000C653D140C42AD52A933109F082C0CE5C28
:10F8A000DE4F88819981AA81BB81C253D1408050AB
:10F8B000904CA340B04030F583E0CE5CDE4FE88052
:10F8C000F9800A811B81C253D140F70100935B008C
:10F8D00080935700E89507B600FCFDCFCE5CDE4F65
:10F8E000088119812A813B81C253D14000501F4FAA
:10F8F0002F4F3F4FCE5CDE4F088319832A833B8313
:10F90000C253D140C05EDE4F488159816A817B81FC
:10F91000C052D140DE011B9631E08C9111962C91A2
:10F9200011971296C75CDE4F2883C953D140C85C3B
:10F93000DE4F1882C853D14090E0C85CDE4FE881AA
:10F94000F981C853D1408E2B9F2B0C01FA01609393
:10F950005B0030935700E89511244E5F5F4F6F4F67
:10F960007F4F0EEFE02E0FEFF02ECE0CDF1CC114F8
:10F97000D10499F685E0C05EDE4F088119812A81A5
:10F980003B81C052D140F80120935B008093570027
:10F99000E89507B600FCFDCF81E180935700E8951C
:10F9A00035C0C05EDE4F88819981AA81BB81C0527B
:10F9B000D140B695A795979587957C018601ABE0D8
:10F9C000AA2EB12CAC0EBD1E0BC0D5016D915D01F0
:10F9D000C7010F947FFE0894E11CF11C01501040F8
:10F9E0000115110591F7A60160E070E0440F551F65
:10F9F000661F771FC05EDE4FE880F9800A811B8199
:10FA0000C052D1404E0D5F1D601F711F1A82C05E33
:10FA1000DE4F488359836A837B83C052D1407FC0C5
:10FA2000FA80C55CDE4FF882CB53D140C65CDE4F16
:10FA30001882CA53D1408B81C82EDD24C65CDE4FAC
:10FA400008811981CA53D140C02AD12A1A828981DA
:10FA5000BE016D5F7F4F843121F59601C05EDE4FA0
:10FA6000E880F9800A811B81C052D1400BBFF701A9
:10FA700087919691DB018C9311969C936E5F7F4FDB
:10FA8000D801C7010296A11DB11DC05EDE4F88835B
:10FA90009983AA83BB83C052D14022503040F1F6F3
:10FAA00036C0C05EDE4F288139814A815B81C052F9
:10FAB000D1400894C108D108760100E010E0089414
:10FAC000C11CD11C0894E11CF11C011D111DE20E8A
:10FAD000F31E041F151F21BDBB27A52F942F832FB5
:10FAE00082BD2F5F3F4F4F4F5F4FF89A80B5DB01CC
:10FAF0008D93BD012E153F054007510761F7C05E8C
:10FB0000DE4F288339834A835B83C052D1409601FC
:10FB10002D5F3F4FFB01108204C080EC8A8322E0FE
:10FB200030E08BE18093C6008091C00086FFFCCF5F
:10FB30008091C00080648093C000C15DDE4FF88179
:10FB4000CF52D140F093C6008091C00086FFFCCF19
:10FB50008091C00080648093C000432F3093C60022
:10FB60008091C00086FFFCCF8091C00080648093AC
:10FB7000C000922F2093C6008091C00086FFFCCF6A
:10FB80008091C00080648093C0008EE08093C600A6
:10FB90008091C00086FFFCCF8091C000806480937C
:10FBA000C00065E1C15DDE4FE880CF52D1406E25D7
:10FBB00069276427FE01319610C090819093C6009A
:10FBC0008091C00086FFFCCF31968091C000806498
:10FBD0008093C0006927215030402115310569F715
:10FBE0006093C6008091C00086FFFCCF8091C0006A
:10FBF00080648093C00085B1805885B9772081F4F6
:10FC0000C15DDE4F0881CF52D1400F5FC15DDE4F35
:10FC10000883CF52D14090E0A0E0B0E00D941AF4F8
:10FC200027982F9880E090E020ED37E0F901319798
:10FC3000F1F7019684369105C9F700008091C00064
:10FC40008D7F8093C00081E180935700E895EE2777
:10FC5000FF270994FFCF90E00D941AF497FB092E2B
:10FC600007260AD077FD04D02ED006D000201AF443
:10FC7000709561957F4F0895F6F7909581959F4F08
:10FC80000895A1E21A2EAA1BBB1BFD010DC0AA1FDD
:10FC9000BB1FEE1FFF1FA217B307E407F50720F0F5
:10FCA000A21BB30BE40BF50B661F771F881F991F70
:10FCB0001A9469F760957095809590959B01AC01B9
:10FCC000BD01CF010895AA1BBB1B51E107C0AA1FAC
:10FCD000BB1FA617B70710F0A61BB70B881F991FED
:10FCE0005A95A9F780959095BC01CD010895F99991
:10FCF000FECF92BD81BDF89A992780B50895262F31
:10FD0000F999FECF1FBA92BD81BD20BD0FB6F89400
:0EFD1000FA9AF99A0FBE01960895F894FFCF63
:00000001FF
