:100000000C947A000C94AB000C94AB000C94AB00F5
:100010000C94AB000C94AB000C94AB000C94AB00B4
:100020000C94AB000C94AB000C94AB000C94AB00A4
:100030000C94AB000C94AB000C94AB000C94AB0094
:100040000C94AB000C94AB000C94AB000C94AB0084
:100050000C94AB000C94AB000C94AB000C94AB0074
:100060000C94AB000C94AB000C94AB000C94AB0064
:100070000C94AB000C94AB000C94AB000C94AB0054
:100080000C94AB000C94AB000C94AB000C94AB0044
:100090000C94D8010C94AB000C94AB000C94AB0006
:1000A0000C94AB000C94AB000C94AB000C94AB0024
:1000B0000C94AB000C94AB000C94AB000C94AB0014
:1000C0000C94AB000C94AB000C94AB000C94AB0004
:1000D0000C94AB000C94AB000C94AB000C94AB00F4
:1000E0000C94AB000C9412010C9402020C94B30219
:1000F000B302020211241FBECFEFD1E2DEBFCDBF9B
:1001000000E00CBF23E0A4EFB2E001C01D92AF3DC0
:10011000B207E1F712E0A0E0B2E0EEEBF2E100E0BE
:100120000BBF02C007900D92A43FB107D9F710E0B2
:10013000C9E7D0E000E006C021970109802FFE0149
:100140000E943F04C837D10780E00807A9F70E9442
:100150006A030C944D090C940000FC0191919923C1
:1001600039F08091C80085FFFCCF9093CE00F6CF88
:1001700008958F929F92AF92BF92EF92FF920F934A
:100180001F93CF93DF93CDB7DEB7A1970FB6F89447
:10019000DEBF0FBECDBF7C01FA01CB0119A2223018
:1001A00008F42AE08E010F5D1F4F822E912CB12C96
:1001B000A12CBF01A50194010E941D04F901CA01EF
:1001C0006A3074F5605DD8016E938D01232B242B6A
:1001D000252B79F790E080E0109789F0FD010190E0
:1001E0000020E9F73197AF014A1B5B0BD701ED9176
:1001F000FC910280F381E02DB801C7011995A19609
:100200000FB6F894DEBF0FBECDBFDF91CF911F9127
:100210000F91FF90EF90BF90AF909F908F900895B7
:10022000695CD1CF8F929F92AF92BF92CF92DF92B3
:10023000EF92FF920F931F93CF93DF937C01EB011B
:100240006C0182E0C80ED11C4701E5E08E0E911CC6
:1002500010E000E0F60141916F0150E070E060E0D5
:100260002AE0CE010E94B9005C01E881F981019089
:10027000F081E02D6EE2CE0119958A0D9B1D080FCD
:10028000191FC814D90431F7F701458150E070E017
:1002900060E02AE0CE010E94B900800F911FDF913B
:1002A000CF911F910F91FF90EF90DF90CF90BF9073
:1002B000AF909F908F900895EF92FF920F931F93AE
:1002C000CF93DF93CDB7DEB7C253D1400FB6F894CA
:1002D000DEBF0FBECDBF6CE072E0CE0101967C01A7
:1002E0000E945606F70101900020E9F731978F012F
:1002F0000E191F0980E592E00E94AD009FEF2FE4E8
:1003000083EC915020408040E1F700C000001127AD
:100310001F930F938EE792E09F938F938E010F5759
:100320001F4F1F930F930E947706C8010E94AD00D4
:100330009FEF23ED80E3915020408040E1F700C023
:100340000000C7010E94AD009FEF2BE782E99150AA
:1003500020408040E1F700C0000065EF72E0CE0170
:100360008F5F9E4F0E9456061092F40280E992E041
:100370000E94AD009FEF23ED80E39150204080402C
:10038000E1F700C000000F900F900F900F900F90BA
:100390000F9080E0CE5CDE4F0FB6F894DEBF0FBE4C
:1003A000CDBFDF91CF911F910F91FF90EF900895F6
:1003B0001F920F920FB60F9211240BB60F928F93CC
:1003C0009F93EF93FF938091CE00E091F40291E030
:1003D0009E0F9093F402F0E0EB50FD4F8083FF916D
:1003E000EF919F918F910F900BBE0F900FBE0F90CA
:1003F0001F901895FC0180819181009711F00C9459
:10040000E3040895CF93DF9389EC93E00E94FA010F
:1004100083EC93E00E94FA018DEB93E00E94FA01D5
:1004200087EB93E00E94FA0181EB93E00E94FA01CE
:10043000C1EBD3E02697CE010E94FA0183E0C138D8
:10044000D807C1F78BE793E00E94FA0185E793E0B4
:100450000E94FA018FE693E00E94FA0189E693E098
:100460000E94FA01CBE5D3E02697CE010E94FA0163
:1004700083E0CB32D807C1F7DF91CF9108950F9376
:100480001F93CF93DF93EC0188819981009759F0F6
:100490002A813B812617370730F081E0DF91CF9129
:1004A0001F910F9108958B016F5F7F4F0E946C0524
:1004B000009759F0998388831B830A832C813D819F
:1004C000232B59F7FC011082E8CF80E0E7CFCF93D0
:1004D000DF93EC01198218821B821A821D821C8212
:1004E00070E060E00E943F022881398181110FC0D5
:1004F0002115310519F0C9010E94E30419821882FF
:100500001D821C821B821A82DF91CF9108951D8269
:100510001C8265EC72E0C901DF91CF910C94560604
:10052000CF93DF93EC0170E060E00E943F022881EE
:10053000398181110FC02115310519F0C9010E94BF
:10054000E304198218821D821C821B821A82DF91A9
:10055000CF9108951D821C8265EC72E0C901DF9184
:10056000CF910C945606CF93DF938AE092E090935C
:10057000D0038093CF031092D1031092D203109234
:10058000D3031092D403109228031092270380E51E
:1005900090E090932A0380932903D0E0C0E0CE013D
:1005A000855D9C4F0E9467022696C033D105B9F73E
:1005B00089E693E00E9467028FE693E00E9467025B
:1005C00085E793E00E9467028BE793E00E94670251
:1005D000D0E0C0E0CE018F579C4F0E946702269664
:1005E000C033D105B9F781EB93E00E94670287EB36
:1005F00093E00E9467028DEB93E00E94670283EC18
:1006000093E00E94670289EC93E00E9467028BE20C
:1006100093E00E94900281E393E00E94900287E3BE
:1006200093E00E9490028DE393E00E94900283E4A5
:1006300093E00E94900289E493E00E9490028FE48C
:1006400093E00E94900285E593E00E94900280E092
:1006500090E0A0ECBFE780935B0390935C03A093D2
:100660005D03B0935E0380935F0390936003A09358
:100670006103B09362038093630390936403A09338
:100680006503B093660389E693E00E9490028FE6CB
:1006900093E00E94900285E793E00E9490028BE72E
:1006A00093E00E94900288EC90E09093680380931E
:1006B00067038AE092E09093D6038093D50310926B
:1006C000D7031092D8031092D9031092DA03DF9166
:1006D000CF910895CF93DF93CDB7DEB7C257D1093D
:1006E0000FB6F894DEBF0FBECDBF789488E090E0DF
:1006F0009093CD008093CC0088E98093C90086E078
:100700008093CA008FEF87B988B980EA92E09F93FF
:100710008F9389EA92E09F938F9381EB92E09F936E
:100720008F938E010F5F1F4F1F930F930E947706C9
:100730000FB6F894DEBF0FBECDBF86EC92E00E94EC
:10074000AD009FEF23ED80E3915020408040E1F722
:1007500000C0000065EF72E0CE018F5B9F4F0E94EA
:1007600056061092F4026BEC72E0CE018F5B9F4F45
:100770000E945D06892B09F38EEC92E00E94AD0089
:100780009FEF29E688E1915020408040E1F700C0CA
:10079000000065EF72E0CE018F5B9F4F0E9456060E
:1007A0001092F4026BEC72E0CE018F5B9F4F0E94BF
:1007B0005D06892B09F3C8010E94AD009FEF27EA6F
:1007C00081E6915020408040E1F700C0000065EFD5
:1007D00072E0CE018F5B9F4F0E9456061092F4028A
:1007E0006CED72E0CE018F5B9F4F0E945D06892BFE
:1007F00071F086EE92E00E94AD009FEF27EA81E65D
:10080000915020408040E1F700C00000E9CF9FEF09
:100810002BE782E9915020408040E1F700C00000C2
:1008200011E00E945C01813311F418B9FACF0E94E3
:100830005C018033B1F718B8F4CFA1E21A2EAA1BDD
:10084000BB1BFD010DC0AA1FBB1FEE1FFF1FA21780
:10085000B307E407F50720F0A21BB30BE40BF50B7D
:10086000661F771F881F991F1A9469F76095709506
:10087000809590959B01AC01BD01CF010895EE0FCD
:10088000FF1F881F8BBF0790F691E02D19940F93DF
:100890001F93CF93DF938230910510F482E090E0B4
:1008A000E091DD03F091DE0330E020E0B0E0A0E075
:1008B000309799F42115310509F44AC0281B390BEA
:1008C00024303105D8F58A819B816115710589F144
:1008D000FB0193838283FE0111C04081518102811B
:1008E000138148175907E0F04817590799F41097F2
:1008F00061F012960C93129713961C933296CF01C7
:10090000DF91CF911F910F9108950093DD03109314
:10091000DE03F4CF2115310551F04217530738F0AB
:10092000A901DB019A01BD01DF01F801C1CFEF018F
:10093000F9CF9093DE038093DD03CDCFFE01E20F6C
:10094000F31F819391932250310939832883D7CFA4
:100950002091DB033091DC03232B41F42091020230
:10096000309103023093DC032093DB0320910002DB
:10097000309101022115310541F42DB73EB7409168
:10098000040250910502241B350BE091DB03F0912A
:10099000DC03E217F307A0F42E1B3F0B28173907DF
:1009A00078F0AC014E5F5F4F2417350748F04E0FCB
:1009B0005F1F5093DC034093DB03819391939FCFA0
:1009C000F0E0E0E09CCFCF93DF930097E9F0FC01EB
:1009D000329713821282A091DD03B091DE03ED0104
:1009E00030E020E01097A1F420813181820F931F25
:1009F0002091DB033091DC032817390709F061C02F
:100A0000F093DC03E093DB03DF91CF910895EA01DB
:100A1000CE17DF07E8F54A815B819E01411551053C
:100A2000B1F7E901FB83EA8349915991C40FD51FBE
:100A3000EC17FD0761F4808191810296840F951F68
:100A4000E90199838883828193819B838A83F0E083
:100A5000E0E012968D919C9113970097B9F52D9136
:100A60003C911197CD010296820F931F2091DB03D9
:100A70003091DC032817390739F6309751F5109279
:100A8000DE031092DD03B093DC03A093DB03BCCF45
:100A9000D383C28340815181840F951FC817D90722
:100AA00061F44E5F5F4F88819981480F591F5183D0
:100AB00040838A819B81938382832115310509F0CC
:100AC000B0CFF093DE03E093DD039ECFFD01DC01A8
:100AD000C0CF13821282D7CF4F925F926F927F92D4
:100AE0008F929F92AF92BF92CF92DF92EF92FF923E
:100AF0000F931F93CF93DF938C01009799F4CB0151
:100B0000DF91CF911F910F91FF90EF90DF90CF90E9
:100B1000BF90AF909F908F907F906F905F904F901D
:100B20000C944704FC01E60FF71F9C012250310989
:100B3000E217F30708F4AEC0D901CD91DC9111970B
:100B4000C617D70720F1C530D10578F0CE0104973C
:100B50008617970750F0C61BD70B2297C193D193E6
:100B60006D937C93CF010E94E304C801DF91CF9184
:100B70001F910F91FF90EF90DF90CF90BF90AF90BB
:100B80009F908F907F906F905F904F9008955B0142
:100B9000AC1ABD0A4C018C0E9D1EA091DD03B091D4
:100BA000DE03512C412CF12CE12C109731F5809172
:100BB000DB039091DC038815990509F05CC04616AB
:100BC000570608F058C080910002909101020097EA
:100BD00041F48DB79EB74091040250910502841BE9
:100BE000950BE817F90708F055C0F093DC03E09384
:100BF000DB03F90171836083B8CF8D919C911197CC
:100C000012966C90129713967C901397A815B905BD
:100C100059F56C0142E0C40ED11CCA14DB0420F16A
:100C2000AC014A195B09DA011296159780F06282CD
:100C3000738251834083D9016D937C93E114F10455
:100C400071F0D7011396FC93EE9312978ECF2296F4
:100C50008C0F9D1FF90191838083F301EFCFF093F7
:100C6000DE03E093DD0381CF4816590608F42C011A
:100C70007D01D3019ACFCB010E9447047C010097EC
:100C800049F0AE01B8010E944D06C8010E94E3047C
:100C900087016BCF10E000E068CFFB01DC0102C0F0
:100CA00001900D9241505040D8F70895FB01DC01AE
:100CB00001900D920020E1F70895FB015191552319
:100CC000A9F0BF01DC014D9145174111E1F759F43D
:100CD000CD010190002049F04D9140154111C9F31B
:100CE000FB014111EFCF81E090E0019708950F9350
:100CF0001F93CF93DF93CDB7DEB72E970FB6F8943F
:100D0000DEBF0FBECDBF0E891F8986E08C831A839C
:100D100009838FEF9FE79E838D83AE01465E5F4F11
:100D2000688D798DCE0101960E94A7062F813885A6
:100D3000020F131FF80110822E960FB6F894DEBF33
:100D40000FBECDBFDF91CF911F910F9108952F92CC
:100D50003F924F925F926F927F928F929F92AF924B
:100D6000BF92CF92DF92EF92FF920F931F93CF9398
:100D7000DF9300D000D000D01F921F92CDB7DEB716
:100D80007C013B018A01FC0117821682838181FF6D
:100D9000DDC1CE0101965C01F7019381F30193FD62
:100DA000859193FF81913F01882309F453C18532D6
:100DB00039F493FD859193FF81913F01853229F4A8
:100DC000B70190E00E94BF08E7CF912C212C312C75
:100DD000FFE1F31538F08B3211F190F4803209F114
:100DE000833229F137FC3CC020ED280F2A3050F522
:100DF00036FE20C08AE0989E200D1124922E06C057
:100E00008D3291F0803371F7689430F8F30193FDDF
:100E1000859193FF81913F018111DACF21C06894C0
:100E200031F8689432F8F2CF689433F8EFCF6894D1
:100E300034F8ECCFEAE02E9E200D1124222E689487
:100E400035F8E4CF8E3229F436FC04C1689436F8C4
:100E5000DDCF8C3619F4689437F8D8CF8836B1F2E4
:100E6000982F9F7D95549330E0F08336A1F183371E
:100E7000C1F1833509F063C02801F2E04F0E511C27
:100E8000F801C080D180692D70E036FC02C06FEFA0
:100E90007FEFC6010E94A9084C01689437F88201CF
:100EA0000AC00C5F1F4FFFE3F98388248394912CC1
:100EB0006501E89437F833FE2DC0522C811491045B
:100EC00071F5552009F468CFB70180E290E00E94E7
:100ED000BF085A94F6CFF801808189830E5F1F4FB7
:100EE000E4CF2801F2E04F0E511CF801C080D18000
:100EF000692D70E036FC02C06FEF7FEFC6010E94E3
:100F0000B4084C018201D5CFB70180E290E00E9485
:100F1000BF082A942814190409F0B0F7CECFF601BF
:100F200037FC859137FE81916F01B70190E00E94F7
:100F3000BF0851105A94F1E08F1A9108BFCF843640
:100F400019F0893609F077C0F80137FE6BC060816F
:100F50007181828193810C5F1F4FF32DFF763F2EAD
:100F600097FF09C090958095709561957F4F8F4F41
:100F70009F4F689437F82AE030E0A5010E94EF08FF
:100F8000C82ECA188C2C432C36FE0CC0E89440F8AE
:100F9000C91440F434FE05C032FC03C0F32DFE7EBC
:100FA0004F2E892C44FEAAC0FE01EC0DF11D80815C
:100FB000803309F09CC0242D297E422E842D887018
:100FC000582E43FCAAC040FEA4C09C2C821418F4E6
:100FD0002C0C922C981844FEA6C0B70180E390E038
:100FE0000E94BF0842FE09C088E790E041FE02C0AF
:100FF00088E590E0B7010E94BF08C91408F49FC0BB
:10100000CA94D12C9FEFC91AD90ACA0CDB1CF6016D
:1010100082916F01B70190E00E94BF08AC14BD043B
:10102000B1F74FCF60817181072E000C880B990BAF
:101030000E5F1F4F92CFD32CE894D4F82AE030E013
:101040008537E1F1232D297FD22E8F36A9F1F0F4D7
:10105000883551F1F701868197812B960FB6F89468
:10106000DEBF0FBECDBFDF91CF911F910F91FF90DB
:10107000EF90DF90CF90BF90AF909F908F907F9038
:101080006F905F904F903F902F900895803749F078
:10109000883701F7D4FE02C06894D2F820E130E02E
:1010A0000DC06894D4F8F6CF34FE03C0822F86605A
:1010B000D82E20E132E002C028E030E0F801D7FE6F
:1010C0000FC060817181828193810C5F1F4FA501E8
:1010D0000E94EF08C82ECA183D2CE89437F852CF6A
:1010E0006081718190E080E00E5F1F4FF0CF42FC85
:1010F00002C0839463CF8394839460CF842D8678D9
:1011000009F45CCFF6CFB70180E290E00E94BF08FF
:1011100083948214C0F3512C5ECF522C5818821441
:1011200008F459CFF8CF842D867809F466CF8BE286
:1011300041FE80E247FC8DE2B70190E05CCFB70151
:1011400080E390E00E94BF089A9457CF8FEF9FEF03
:1011500084CFFC010590615070400110D8F7809554
:1011600090958E0F9F1F0895FC0161507040019073
:101170000110D8F7809590958E0F9F1F08950F93BB
:101180001F93CF93DF93182F092FEB018B8181FDE4
:1011900009C01FEF0FEF812F902FDF91CF911F918B
:1011A0000F91089582FF14C02E813F818C819D8113
:1011B000281739073CF4E881F981CF01019699831A
:1011C000888310838E819F8101969F838E83E3CFD6
:1011D000E885F985812F1995892BA1F3DACFFA01DA
:1011E000AA27283051F1203181F1E8946F936E7F66
:1011F0006E5F7F4F8F4F9F4FAF4FB1E03ED0B4E057
:101200003CD0670F781F891F9A1FA11D680F791F97
:101210008A1F911DA11D6A0F711D811D911DA11DA8
:1012200020D009F468943F912AE0269F11243019B8
:10123000305D3193DEF6CF010895462F4770405D53
:101240004193B3E00FD0C9F7F6CF462F4F70405D02
:101250004A3318F0495D31FD4052419302D0A9F75D
:10126000EACFB4E0A6959795879577956795BA9557
:10127000C9F700976105710508959B01AC010A2E1D
:1012800006945795479537952795BA95C9F7620FF4
:10129000731F841F951FA01D089510E0C9E7D0E0BB
:1012A00000E006C0802FFE010E943F042196011D30
:0E12B000CA37D10780E00807A9F7F894FFCFEE
:1012BE000000DF03800000000000120147455420AB
:1012CE0068747470733A2F2F6170692E7468696E2A
:1012DE0067737065616B2E636F6D2F6368616E6EE1
:1012EE00656C732F323035333936362F6669656C3F
:1012FE0064732F342F6C6173742E7478740D0A001E
:10130E0041542B43495053544152543D342C225492
:10131E004350222C226170692E7468696E67737057
:10132E0065616B2E636F6D222C38300D0A004154AF
:10133E002B43495053454E443D342C25640D0A0031
:10134E0041542B434950434C4F53453D350D0A00F4
:10135E0063616268696E617600506978656C2D35DF
:10136E000041542B43574A41503D222573222C22D3
:10137E002573220D0A0041540D0A004F4B004154B3
:10138E002B43574D4F44453D310D0A00434F4E4EB2
:10139E0045435445440041542B4349504D55583D07
:0413AE00310D0A00F3
:00000001FF
