:100000000C9472000C9493000C9493000C94930045
:100010000C9493000C9493000C9493000C94930014
:100020000C9493000C9493000C9493000C94930004
:100030000C9493000C9493000C9493000C949300F4
:100040000C9493000C9493000C9493000C949300E4
:100050000C9493000C9493000C9493000C949300D4
:100060000C9493000C94E9000C94B1000C94930050
:100070000C9493000C9493000C9493000C949300B4
:100080000C9493000C9493000C9493000C949300A4
:100090000C9493000C9493000C9493000C94930094
:1000A0000C9493000C9493000C9493000C94930084
:1000B0000C9493000C9493000C9493000C94930074
:1000C0000C9493000C9493000C9493000C94930064
:1000D0000C94D9000C9493000C9493000C9493000E
:1000E0000C94930011241FBECFEFD1E2DEBFCDBF31
:1000F00000E00CBF12E0A0E0B2E0E6E1F2E000E0D8
:100100000BBF02C007900D92A830B107D9F722E0CB
:10011000A8E0B2E001C01D92AC30B207E1F70E9446
:10012000F9000C9409010C9400001092C50088E0BD
:100130008093C4001092C00088EF8093C10086E0D5
:100140008093C20008951092D50088E08093D40077
:100150001092D00088E68093D10086E08093D20090
:1001600008951F920F920FB60F9211240BB60F92A3
:100170008F939F93EF93FF939091080280910B02CE
:10018000981760F4E091080281E08E0F80930802D6
:10019000F0E0E050FE4F80818093C600FF91EF9128
:1001A0009F918F910F900BBE0F900FBE0F901F90DD
:1001B00018951F920F920FB60F9211248F93809172
:1001C00006028093D6008F910F900FBE0F901F9064
:1001D00018951F920F920FB60F9211248F93809152
:1001E000C600809306028F910F900FBE0F901F9054
:1001F0001895E0E0F2E001900020E9F73197E05037
:10020000F240E0930B020E94A3000E9495007894B4
:06021000FFCFF894FFCFC0
:0802160041540D0A00202000F4
:00000001FF
