:100000000C9472000C9493000C9493000C94930045
:100010000C9493000C9493000C9493000C94930014
:100020000C9493000C9493000C9493000C94930004
:100030000C9493000C9493000C9493000C949300F4
:100040000C9493000C9493000C9493000C949300E4
:100050000C9493000C9493000C9493000C949300D4
:100060000C9493000C9493000C9493000C949300C4
:100070000C9493000C9493000C9493000C949300B4
:100080000C9493000C9493000C9493000C949300A4
:100090000C9493000C9493000C9493000C94930094
:1000A0000C9493000C9493000C9493000C94930084
:1000B0000C9493000C9493000C9493000C94930074
:1000C0000C9493000C9493000C9493000C94930064
:1000D0000C9493000C9493000C9493000C94930054
:1000E0000C94930011241FBECFEFD1E2DEBFCDBF31
:1000F00000E00CBF12E0A0E0B2E0E2EFF1E000E0CF
:100100000BBF02C007900D92AE31B107D9F722E0C4
:10011000AEE1B2E001C01D92AF31B207E1F70E943B
:10012000BD000C94F7000C9400001092C50088E00C
:100130008093C4001092C0008093C10096E0909319
:10014000C2001092CD008093CC001092C80080E1D4
:100150008093C9009093CA0008958093C60080914F
:10016000C00086FFFCCF08958091C80087FFFCCFB8
:100170008091CE0080931E020895CF93DF93CDB778
:10018000DEB76E970FB6F894DEBF0FBECDBF82E02C
:100190008DB91AB80E94950083E0E0E0F2E09E017C
:1001A0002F5F3F4F7901D90101900D928A95E1F7B8
:1001B000FE0134968BE1DF011D928A95E9F7F90182
:1001C00001900020E9F731971E2F121B00E0011764
:1001D00058F4DD24D394D00EF701E00FF11D808197
:1001E0000E94AD000D2DF3CF0E94B400F0CFF89423
:0201F000FFCF3F
:1001F2004154000000000000000000000000000068
:0E0202000000000000000000000000000000EE
:00000001FF
