:100000000C9472000C9493000C9493000C94930045
:100010000C9493000C9493000C9493000C94930014
:100020000C9493000C9493000C9493000C94930004
:100030000C9493000C9493000C9493000C949300F4
:100040000C9493000C9493000C9493000C949300E4
:100050000C9493000C9493000C9493000C949300D4
:100060000C9493000C94B1000C9493000C949300A6
:100070000C9493000C9493000C9493000C949300B4
:100080000C9493000C9493000C9493000C949300A4
:100090000C9493000C9493000C9493000C94930094
:1000A0000C9493000C9493000C9493000C94930084
:1000B0000C9493000C9493000C9493000C94930074
:1000C0000C9493000C9493000C9493000C94930064
:1000D0000C9493000C9493000C9493000C94930054
:1000E0000C94930011241FBECFEFD1E2DEBFCDBF31
:1000F00000E00CBF12E0A0E0B2E0EAE9F1E000E0CD
:100100000BBF02C007900D92A630B107D9F722E0CD
:10011000A6E0B2E001C01D92AD36B207E1F70E9441
:10012000C5000C94CB000C9400001092C50088E030
:100130008093C4001092C00080E98093C10086E0E3
:100140008093C20008951092D50088E08093D40077
:100150001092D00088E68093D10086E08093D20090
:1001600008951F920F920FB60F9211248F938091D2
:10017000C60080936B0280916B028093D6008F91B2
:100180000F900FBE0F901F9018950E94A3000E9421
:0A01900095007894FFCFF894FFCF9C
:06019A0041540D0A0000B3
:00000001FF
