:100000000C9472000C9493000C9493000C94930045
:100010000C9493000C9493000C9493000C94930014
:100020000C9493000C9493000C9493000C94930004
:100030000C9493000C9493000C9493000C949300F4
:100040000C9493000C9493000C9493000C949300E4
:100050000C9493000C9493000C9493000C949300D4
:100060000C9493000C9493000C9493000C949300C4
:100070000C9493000C9493000C9493000C949300B4
:100080000C9493000C9493000C9493000C949300A4
:100090000C9493000C94C5000C9493000C94930062
:1000A0000C9493000C9493000C9493000C94930084
:1000B0000C9493000C9493000C9493000C94930074
:1000C0000C9493000C9493000C9493000C94ED000A
:1000D0000C9493000C9493000C9493000C94930054
:1000E0000C94930011241FBECFEFD1E2DEBFCDBF31
:1000F00000E00CBF12E0A0E0B2E0E2E5F2E000E0D8
:100100000BBF02C007900D92A630B107D9F722E0CD
:10011000A6E0B2E001C01D92AC30B207E1F70E9448
:1001200015010C9427010C9400001092CD0088E07A
:100130008093CC00E9ECF0E08081886280831092AB
:10014000C80086E08093CA0008951092D50088E028
:100150008093D400E1EDF0E080818069808310928B
:10016000D00086E08093D20008951092350188E097
:1001700080933401E1E3F1E080818061808310921B
:10018000300186E08093320108951F920F920FB6DE
:100190000F9211240BB60F928F939F93EF93FF93BF
:1001A0009091070280910B02981760F4E09107028A
:1001B00081E08E0F80930702F0E0E050FE4F8081D7
:1001C0008093CE00FF91EF919F918F910F900BBE86
:1001D0000F900FBE0F901F9018951F920F920FB6A1
:1001E0000F9211240BB60F928F93EF93FF93809190
:1001F000D60080930A02E091060281E08E0F809380
:10020000060280910A02F0E0E85FFD4F8083809152
:100210000A0280933601FF91EF918F910F900BBEF0
:100220000F900FBE0F901F9018950E9495000E948E
:10023000A5000E94B500E0E0F2E001900020E9F79F
:100240003197E050F240E0930B027894FFCFF8949E
:02025000FFCFDE
:0602520041540D0A0000FA
:00000001FF
