:100000000C9472000C9493000C9493000C94930045
:100010000C9493000C9493000C9493000C94930014
:100020000C9493000C9493000C9493000C94930004
:100030000C9493000C9493000C9493000C949300F4
:100040000C9493000C9493000C9493000C949300E4
:100050000C9493000C9493000C9493000C949300D4
:100060000C9493000C9493000C9493000C949300C4
:100070000C9493000C9493000C9493000C949300B4
:100080000C9493000C9493000C9493000C949300A4
:100090000C9493000C94C8000C9493000C9493005F
:1000A0000C9493000C9493000C9493000C94930084
:1000B0000C9493000C9493000C9493000C94930074
:1000C0000C9493000C9493000C9493000C94F50002
:1000D0000C9493000C9493000C9493000C941801CE
:1000E0000C94930011241FBECFEFD1E2DEBFCDBF31
:1000F00000E00CBF12E0A0E0B2E0E2E8F2E000E0D5
:100100000BBF02C007900D92AC30B107D9F722E0C7
:10011000ACE0B2E001C01D92A537B207E1F70E9442
:1001200022010C943F010C94000088E090E0909331
:10013000CD008093CC00E9ECF0E080818862808380
:100140001092C80086E08093CA00089588E090E08D
:100150009093D5008093D400E1EDF0E08081806938
:1001600080831092D00086E08093D200089588E0CA
:1001700090E09093350180933401E1E3F1E08081D8
:10018000886280831092300186E080933201089566
:100190001F920F920FB60F9211240BB60F928F93EE
:1001A0009F93EF93FF9390910C02809174029817A4
:1001B00088F4E0910C0281E08E0F80930C02F0E055
:1001C000E050FE4F80818093CE008091C900806214
:1001D0008093C900FF91EF919F918F910F900BBE7B
:1001E0000F900FBE0F901F9018951F920F920FB691
:1001F0000F9211240BB60F928F93EF93FF93F89405
:100200008091D60080937302E1E3F1E08081806207
:10021000808378948091730280933601FF91EF91EF
:100220008F910F900BBE0F900FBE0F901F901895DF
:100230001F920F920FB60F9211240F900FBE0F90C6
:100240001F9018950E9495000E94A6000E94B7007A
:10025000E0E0F2E001900020E9F73197E050F24051
:10026000E0937402789480910D02882339F0809194
:10027000310180628093310110920D02FFCFF8941A
:02028000FFCFAE
:0C02820041542B43574D4F44450D0A00DA
:00000001FF
