:100000000C9472000C9493000C9493000C94930045
:100010000C9493000C9493000C9493000C94930014
:100020000C9493000C9493000C9493000C94930004
:100030000C9493000C9493000C9493000C949300F4
:100040000C9493000C9493000C9493000C949300E4
:100050000C9493000C9493000C9493000C949300D4
:100060000C9493000C9493000C9493000C949300C4
:100070000C9493000C9493000C9493000C949300B4
:100080000C9493000C9493000C9493000C949300A4
:100090000C9493000C94C8000C9493000C9493005F
:1000A0000C9493000C9493000C9493000C94930084
:1000B0000C9493000C9493000C9493000C94930074
:1000C0000C9493000C9493000C9493000C94930064
:1000D0000C940D010C9493000C94F0000C9493007C
:1000E0000C94930011241FBECFEFD1E2DEBFCDBF31
:1000F00000E00CBF12E0A0E0B2E0ECE7F2E000E0CC
:100100000BBF02C007900D92A630B107D9F722E0CD
:10011000A6E0B2E001C01D92A930B207E1F70E944B
:100120002A010C943C010C94000088E090E090932C
:10013000CD008093CC00E9ECF0E080818862808380
:100140001092C80086E08093CA00089588E090E08D
:100150009093D5008093D400E1EDF0E08081886039
:1001600080831092D00086E08093D200089588E0CA
:1001700090E09093350180933401E1E3F1E08081D8
:10018000806980831092300186E080933201089567
:100190001F920F920FB60F9211240BB60F928F93EE
:1001A0009F93EF93FF939091060280910802981716
:1001B00060F4E091060281E08E0F80930602F0E089
:1001C000E050FE4F80818093CE00FF91EF919F9190
:1001D0008F910F900BBE0F900FBE0F901F90189530
:1001E0001F920F920FB60F9211240BB60F928F939E
:1001F000EF93FF938091360180930702E1EDF0E0E9
:10020000808180628083FF91EF918F910F900BBE70
:100210000F900FBE0F901F9018951F920F920FB660
:100220000F9211240BB60F928F93EF93FF9380914F
:1002300007028093D600E1EDF0E080818F7D80831E
:10024000FF91EF918F910F900BBE0F900FBE0F900B
:100250001F9018950E9495000E94A6000E94B7006A
:10026000E0E0F2E001900020E9F73197E050F24041
:0C027000E09308027894FFCFF894FFCFD1
:06027C0041540D0A0000D0
:00000001FF
