:100000000C9472000C9493000C9493000C94930045
:100010000C9493000C9493000C9493000C94930014
:100020000C9493000C9493000C9493000C94930004
:100030000C9493000C9493000C9493000C949300F4
:100040000C9493000C9493000C9493000C949300E4
:100050000C9493000C9493000C9493000C949300D4
:100060000C9493000C9493000C9493000C949300C4
:100070000C9493000C9493000C9493000C949300B4
:100080000C9493000C9493000C9493000C949300A4
:100090000C9493000C94C8000C9493000C9493005F
:1000A0000C9493000C9493000C9493000C94930084
:1000B0000C9493000C9493000C9493000C94930074
:1000C0000C9493000C9493000C9493000C94F00007
:1000D0000C9493000C9493000C9493000C941A01CC
:1000E0000C94930011241FBECFEFD1E2DEBFCDBF31
:1000F00000E00CBF12E0A0E0B2E0EEE9F2E000E0C8
:100100000BBF02C007900D92AE30B107D9F722E0C5
:10011000AEE0B2E001C01D92A331B207E1F70E9448
:100120003B010C944D010C94000088E090E090930A
:10013000CD008093CC00E9ECF0E080818862808380
:100140001092C80086E08093CA00089588E090E08D
:100150009093D5008093D400E1EDF0E08081806938
:1001600080831092D00086E08093D200089588E0CA
:1001700090E09093350180933401E1E3F1E08081D8
:10018000886280831092300186E080933201089566
:100190001F920F920FB60F9211240BB60F928F93EE
:1001A000EF93FF93E0910F02F0E0E050FE4F80816B
:1001B000882361F0E0910F0281E08E0F80930F029F
:1001C000F0E0E050FE4F80818093CE00FF91EF91F0
:1001D0008F910F900BBE0F900FBE0F901F90189530
:1001E0001F920F920FB60F9211240BB60F928F939E
:1001F000EF93FF938091D600882369F0E0910E027F
:1002000081E08E0F80930E028091D600F0E0EF5EC9
:10021000FD4F8083EFCF8091310180628093310167
:10022000FF91EF918F910F900BBE0F900FBE0F902B
:100230001F9018951F920F920FB60F9211240BB6B4
:100240000F928F93EF93FF93E0910E02F0E0EF5E39
:10025000FD4F808180933601E1E3F1E080818F7D65
:100260008083FF91EF918F910F900BBE0F900FBE87
:100270000F901F9018950E9495000E94A6000E9462
:10028000B700E0E0F2E001900020E9F73197E0509C
:0E029000F240E09312027894FFCFF894FFCF73
:0E029E0041542B43574D4F44453D310D0A004E
:00000001FF
