:100000000C9472000C9493000C9493000C94930045
:100010000C9493000C9493000C9493000C94930014
:100020000C9493000C9493000C9493000C94930004
:100030000C9493000C9493000C9493000C949300F4
:100040000C9493000C9493000C9493000C949300E4
:100050000C9493000C9493000C9493000C949300D4
:100060000C9493000C9493000C9493000C949300C4
:100070000C9493000C9493000C9493000C949300B4
:100080000C9493000C9493000C9493000C949300A4
:100090000C94DB000C94B7000C9493000C94930028
:1000A0000C9493000C9493000C9493000C94930084
:1000B0000C9493000C9493000C9493000C94930074
:1000C0000C9493000C9493000C9493000C94930064
:1000D0000C94F8000C9493000C9493000C949300EF
:1000E0000C94930011241FBECFEFD1E2DEBFCDBF31
:1000F00000E00CBF12E0A0E0B2E0EAE3F2E000E0D2
:100100000BBF02C007900D92AE30B107D9F722E0C5
:10011000AEE0B2E001C01D92A031B207E1F70E944B
:1001200015010C941B010C94000088E090E0909362
:10013000CD008093CC00E9ECF0E08081886F808373
:100140001092C80086E08093CA00089588E090E08D
:100150009093D5008093D400E1EDF0E08081886237
:1001600080831092D00086E08093D20008951F9281
:100170000F920FB60F9211240BB60F928F939F938D
:10018000EF93FF9380910E02E82FF0E0E050FE4FD6
:100190009081992329F08F5F80930E029093CE0077
:1001A000FF91EF919F918F910F900BBE0F900FBE1B
:1001B0000F901F9018951F920F920FB60F92112457
:1001C0000BB60F928F93EF93FF938091CE008093A5
:1001D0000F02E1EDF0E0808180628083FF91EF917A
:1001E0008F910F900BBE0F900FBE0F901F90189520
:1001F0001F920F920FB60F9211240BB60F928F938E
:10020000EF93FF9380910F028093D600E1EDF0E031
:1002100080818F7D8083FF91EF918F910F900BBE36
:100220000F900FBE0F901F9018950E9495000E948E
:0A023000A6007894FFCFF894FFCFEA
:0E023A0041542B43574D4F44453D310D0000BC
:00000001FF
