:100000000C9472000C9493000C9493000C94930045
:100010000C9493000C9493000C9493000C94930014
:100020000C9493000C9493000C9493000C94930004
:100030000C9493000C9493000C9493000C949300F4
:100040000C9493000C9493000C9493000C949300E4
:100050000C9493000C9493000C9493000C949300D4
:100060000C9493000C9493000C9493000C949300C4
:100070000C9493000C9493000C9493000C949300B4
:100080000C9493000C9493000C9493000C949300A4
:100090000C9493000C9493000C9493000C94930094
:1000A0000C9493000C9493000C9493000C94930084
:1000B0000C9493000C9493000C9493000C94930074
:1000C0000C9493000C9493000C9493000C94930064
:1000D0000C9493000C9493000C9493000C94930054
:1000E0000C94930011241FBECFEFD1E2DEBFCDBF31
:1000F00000E00CBF12E0A0E0B2E0ECEEF1E000E0C6
:100100000BBF02C007900D92AE30B107D9F722E0C5
:10011000AEE0B2E001C01D92A131B207E1F70E944A
:10012000C8000C94F4000C9400001092C50088E004
:100130008093C4001092C00098E19093C10096E0B3
:100140009093C2001092D5008093D4001092D000FA
:100150008093D1009093D20008958093C60080913F
:10016000C00085FFFCCF08958FEF9091C00097FFEE
:10017000FCCF9091C6009093100280930B01909158
:1001800010029093D6009091D00095FFFCCFEDCF58
:10019000CF93DF93CDB7DEB72E970FB6F894DEBFBF
:1001A0000FBECDBF0E9495008EE0E0E0F2E09E0120
:1001B0002F5F3F4F7901D90101900D928A95E1F7A8
:1001C000F90101900020E9F731971E2F121B6901F8
:1001D0008C2D8E19811730F4F60181916F010E94E8
:0C01E000AD00F6CF0E94B400F894FFCFF1
:0E01EC0041542B43574D4F44453D310D0A0001
:00000001FF
